:10067200414243440060606060746573746060600E
:1006820060600A00726561646B65797061643D2522
:0406920064000A00F6
:1004BE001207441205487D4CE4FF1206207D497F49
:1004CE000A1206207D587F141206207D4E7F1E12C2
:1004DE0006207D4C7F281206207D307F32120620AA
:1004EE007D647F3C1206207D477F461206207D509C
:1004FE007F501206207BFF7A067972E4FDFF12050B
:10050E00C67BFF7A0679771200657FD07E071206CA
:10051E00DF12035F7509008F0A7BFF7A06798685E5
:10052E00090E850A0F1200657BFF7A067994120078
:0A053E00657FB87E0B12075D80D7C1
:0806D700D2A7D2A67F017E002C
:1006DF007C007D0A12044BEF1FAC0670011E4C60AC
:0406EF00030080F391
:0106F30022E4
:1007C8001206D7C2A71206DBC2A67F017E00020668
:0107D800DF41
:10078B00C2A6C2A71206D9D2A71206DBC2A67F0148
:05079B007E000206DFF4
:0E07E800C2A71206D9C2A67F017E000206DF5C
:0C07F6001206D7C2A67F017E000206DFBB
:10072B001206D7A2A7E433FB1206DBC2A61206DB26
:08073B00EB60037F01227F0047
:010743002293
:02069600AB07B0
:10069800E4FAEAC39408748094805013EB30E705B9
:0F06A8001207F680031207E8EB25E0FB0A80E358
:0106B7002220
:1005F400E4FBFAEAC3940874809480501C1206D772
:10060400A2A7E433FFEA04F8EF08800103D8FD420F
:0B061400031206DBC2A60A80DAAF0367
:01061F0022B8
:100620008F0BA9051207C87FA012069612072BEFA1
:1006300070FAAF0B12069612072BEF70FAAF011289
:0B064000069612072BEF70FA02078BE2
:02058F00A907BA
:100591001207C87FA012069612072BEF70FAAF015F
:1005A10012069612072BEF70FA1207C87FA11206E6
:1005B1009612072BEF70FA1205F4AB071207F61229
:0405C100078BAF03F2
:0105C5002213
:10075D007C007D8C12044BE4FDC3ED9FEC9E500795
:07076D000DBD00010C80F23C
:010774002262
:0E07D900C2A2C2A0D2A1D2A20000AF80C2A2D2
:0107E70022EF
:1006F4007F017E0012075DC2A2C2A0C2A175800163
:0D070400D2A20000C2A27F017E0002075DAC
:0706B8007E0012075D7F3890
:1006BF00AB077F017E0012075DC2A2C2A0C2A18B51
:0806CF0080D2A20000C2A222A9
:10077500AE071207D9EF20E7F9D2A0C2A18E80D229
:06078500A20000C2A22246
:100548007F3C1206B87F051206B87F011206B81262
:1005580007D9EF20E7F97F081206BF1207D9EF2065
:10056800E7F97F011206BF1207D9EF20E7F97F06E6
:100578001206BF1207D9EF20E7F97F0C1206BF1247
:0705880007D9EF20E7F9227B
:10071100EF7006ED4480FA8004ED44C0FAAF021296
:0907210006BF1207D9EF20E7F929
:01072A0022AC
:0A081900A903120711AF01020775D1
:0A05C6008F0B8D0C8B0D8A0E890F30
:1005D000E4F510AB0DAA0EA90F85108275830012E9
:1005E000041EFB600EE50C2510FDAF0B120819056B
:0305F0001080E098
:0105F30022E5
:1007A000A903120711E9640170047F0D80027F0C18
:0407B0001206BF224C
:1007B4007FBFDFEFEEEDEBE7DEDDDBD7BEBDBBB722
:0407C4007E7D7B7744
:0B080E00EF1FAC0670011E4C70F622BC
:10035F00E4F50BC3E50B940474809480400302040E
:10036F001BE50B9007B493F590659070030204168C
:10037F007F887E1312080EE50B93659070030204BD
:10038F0016E4F50CC3E50C9410748094805078E556
:10039F000C9007B893FF65907068EF12045D040E20
:1003AF0077040B7B04087D04057E0402B703FFBBB3
:1003BF0003FCBD03F9BE03F6D703F3DB03F0DD0344
:1003CF00EDDE03EAE703E7EB03E4ED03E1EE000004
:1003DF0004117F0A227F00227F0B227F0C227F01D4
:1003EF00227F02227F03227F0D227F04227F05229C
:1003FF007F06227F0E227F07227F08227F09227F1E
:0E040F000F22050C020393050B0203627F10FF
:01041D0022BC
:10074400E589540F4420F589E4F587758DFD858D81
:090754008B759850D28ED29922C7
:03000000020802F1
:0C080200787FE4F6D8FD7581210204BE69
:10041E00BB010CE58229F582E5833AF583E0225093
:10042E0006E92582F8E622BBFE06E92582F8E222DD
:0D043E00E58229F582E5833AF583E49322F7
:10044B00EF8DF0A4A8F0CF8CF0A428CE8DF0A42EC5
:02045B00FE227F
:10045D00D083D082F8E4937012740193700DA3A32E
:10046D0093F8740193F5828883E473740293686042
:06047D00EFA3A3A380DF42
:10000300E51A240EF8E6051A22780B300702780E5B
:10001300E475F0011204AE0204832000EB7F2ED2BC
:10002300008018EF540F2490D43440D4FF30040BD5
:10003300EF24BFB41A0050032461FFE51B600215CF
:100043001B051EE51E7002051D30070D780BE475B8
:10005300F0011204AEEF02049C02064B7403D207B4
:100063008003E4C207F51A8B0B8A0C890DE4F51B98
:10007300F51DF51EE51B60077F2012003E80F57518
:100083001CFFC201C200C202C203C205C206C208EB
:1000930012000CFF700D3007057F0012004FAF1EDA
:1000A300AE1D22B4255FC2D5C20412000CFF24D0BA
:1000B300B40A00501A75F00A781B30D50508B6FF4C
:1000C3000106C6A426F620D5047002D20380D924E3
:1000D300CFB41A00EF5004C2E5D20402024FD2019A
:1000E30080C6D20080C0D20280BCD2D580BAD205ED
:1000F30080B47F2012003E2002077401B51B00402C
:10010300F1120003FF12003E020077D208D20680EC
:1001130095120003FB120003FA120003F94A4B7015
:100123000679207A037BFF20022EE51B602A7E00DE
:100133008E8275830012041E60060EEE651C70F03D
:10014300C2D5EBC0E0EAC0E0E9C0E0EE120296D00F
:10015300E0F9D0E0FAD0E0FB120483FF60AAEBC021
:10016300E0EAC0E0E9C0E012003ED0E02401F9D0AB
:10017300E03400FAD0E0FBE51C0460DCD51CD98038
:10018300877BFF7A027992D202809C791080027970
:1001930008C206C2088008D2D5790A8004790AC247
:1001A300D5E51C047002F51CE4FAFDFEFF12000302
:1001B300FC7B08200113120003FD7B1030000A12A0
:1001C3000003FE120003FF7B20EC3382D592D5504F
:1001D30013C3E43000069FFFE49EFEE42001039D69
:1001E300FDE49CFCE4CBF8C201EC700CCFCECDCC8B
:1001F300E824F8F870F38017C3EF33FFEE33FEED16
:1002030033FDEC33FCEB33FB994002FB0FD8E9EBF6
:10021300300105F8D0E0C448B201C0E00AEC4D4E0D
:100223004F78207B0070C2EAB51C0040BCC0E012CE
:100233000298D0F0D0E0200104C4C0E0C4B201C0F1
:10024300F0120027D0F0D5F0EB02007712045D0125
:100253001453018E5800E54C00E14201924F019A7C
:0F02630044019A4900FA4301A0550184460184E1
:100272004501844703405000E92D00ED2E01102B6B
:1002820000F123010E2003292A00A94800000108D9
:100292003F3F3F00790AA2D5200314300509B91067
:1002A200020404B9080104A2D52006025001042068
:1002B20002689202B51B005034C0E07F203003195F
:1002C2007F30A20272067205500F1202EFC202C202
:1002D20006C205C2087F30800F300503E9C0E01274
:1002E200003E300503D0E0F9D0E0B51BCC30051755
:1002F2007F30B9100C12003E7F583004077F78809F
:1003020003B9080312003E3002057F2D02003E7F32
:10031200202008F87F2B2006F322920280CF286E3D
:10032200756C6C2900D2011200033001F8C2017809
:100332001B30D50108F60200A92D5043495812007E
:10034200032403B405004001E490033B9312002F01
:0D035200743A12002FD203751B0402018EB5
:10048300BB010689828A83E0225002E722BBFE0277
:09049300E32289828A83E49322AA
:10049C00BB010689828A83F0225002F722BBFE013F
:0204AC00F32239
:1004AE00FAE6FB0808E6F925F0F618E6CA3AF6224F
:10064B00EFB40A07740D120656740A309811A89964
:10065B00B8130CC2983098FDA899C298B811F6300F
:07066B0099FDC299F59922E7
:00000001FF
