:03000000020F18D4
:0C0F1800787FE4F6D8FD75815E020F5F63
:10002E004D4143524F53530046524F4E5449455241
:10003E00001F11111F11111F000F090F090F0911B8
:10004E0000080F120F0A1F020254686520466169EC
:10005E0072792054616C6500436F72616C20536538
:10006E00610000000000004D656574000000000096
:10007E000000000000004C6F7665205472616E73B4
:10008E0066657200000F03100315031603150316A1
:10009E0003170D1703170D17031703160315031672
:1000AE0003170D1703170D17031703160315031662
:1000BE0067150E150310031567160E160317031793
:1000CE00660F0310031503160315031603150D15FE
:1000DE0003190319031703160317031603150D153A
:1000EE0003170D17031703160315031667160E16BF
:1000FE000316031667150E1503100316660F03106D
:10010E00031503160315031603170D1703190D19FF
:10011E00031703160315031603170D17031A0D1AEB
:10012E00031703160315031667150E150310031593
:10013E0067160E1603170319660F03100315031621
:10014E000315031603150D15031A0D1A03190317BC
:10015E000317031603150D1503170D1703170316B3
:10016E000315031667160E160316031667150E15DE
:10017E00031003156615031F031B031F031A031F2A
:10018E00671A0E1A0319031A031903170316031716
:10019E000319031A03190D190319031A0319031A64
:1001AE00671A0E1A031A031A67190E19031A03197E
:1001BE0003170D1716150316031703190317031646
:1001CE0003150D15031503160317031A031703164C
:1001DE0003150D15031503150315031F671F0E1FBA
:1001EE00031F031F671A0E1A031F031A66190D1930
:1001FE000315031F031B031F031B031A0319031A03
:10020E0003190317031603170319031A03190D19FC
:10021E000319031A0319031A671A0E1A031A031A7B
:10022E0067190E19031A031903170D17161503165E
:10023E00031703190317031603150D1503150316DC
:10024E000317031A031703160315031F151F031AAB
:10025E00031F031A03190D190319031A03190317A0
:10026E000316031703160D160315031003150315B6
:10027E000316031500150B15031F031A031F032086
:10028E00031F0D1F031F0320031F031A031F032148
:10029E0003200D20031F031A031F03200215000065
:1002AE00001903170D17021903160D160217031660
:1002BE000D1603150D15011503110310031103156A
:1002CE0003110D150315031603170D170019031748
:1002DE000D17021903160D16021703160D16031528
:1002EE000D150115031103100311031503110D1143
:1002FE00031503150D160315151903170D170219FE
:10030E0003160D16021703160D1603150D150115FE
:10031E00031103100311031503110D1103150D1510
:10032E0003160317001903170D17021903200D20CA
:10033E00021F031B0D1B031F0D1F011503110310BD
:10034E000311031503110D11031503150D160315D6
:10035E001519031A031B031F021B031F031B031A8A
:10036E000319031A0D1A03190D190C190315031687
:10037E00031703180217031803190315031603179F
:10038E000D1703170D171619031A031B031F021B54
:10039E00031F0320031F032003210D2103190D1931
:1003AE000C19031503160317031802170318031766
:1003BE0003160D160315031103150D150100000F7D
:1003CE006719031803170217031804170E170217DD
:1003DE00031803170318031703160415181503172C
:1003EE000319031A021A031A04190E190316031617
:1003FE00031804170E17151503170319031A021AFB
:10040E00031A04190E1903160316031803170318FB
:10041E000317031604150E15021603170310021008
:10042E0003150315021102151416031703100210FB
:10043E00031503150D1103110D15031500000015FD
:10044E00031503150311031003110310030F0D0FF2
:10045E000C0F161503150315031503160316030FBC
:10046E00031867170E1716170319031967150E15BC
:10047E0016150317031703100D1016100315031688
:10048E001617031866170316151F031F031F031FE6
:10049E00031B031A031B031A03190D19030F03166B
:1004AE0003170D1716170317031703170316031554
:1004BE00031603160D1703171617031603166717E1
:1004CE000E17160F0317031603160E1703170E1724
:1004DE00160F031603176618031966170318150F60
:1004EE000316031603170D17021703180317031528
:1004FE00031A0E1903190E190219031A031B0320EE
:10050E000320031F0D1F021F031B031A031B031AD5
:10051E000E1903190E191619671B031B031F0D1F46
:10052E00021F031B031A031B031A0E1903190E19BC
:10053E001617671A031A03150D15021A0319031756
:10054E00031A031A0C1A03190319020F03160316C2
:10055E0003170D170217031803170315031A0419AF
:10056E0003190E190219031A031B03200320031F7C
:10057E000D1F021F031B031A031B031A0E19031967
:10058E000E191619671B031B031F0D1F021F031BDA
:10059E00031A031B031A0E1903190E191617671ADD
:1005AE00031A03150D15021A03190318031703175F
:1005BE000E1603160E160217031603150316031650
:1005CE00041503150E150C15150000010601150175
:1005DE00260137014A015D01710188019F01B801B1
:1005EE00D201EE0002040507090B010204081020D7
:1005FE00403031323334353637383954696D6520F1
:10060E00746F2047657420757021004E6576657293
:10061E002066726F776E2C6576656E207768656ED4
:10062E0020796F7520617265207361642C62656339
:10063E006175736520796F75206E65766572206BB6
:10064E006E6F772077686F2069732066616C6C69B6
:10065E006E6720696E206C6F7665207769746820EE
:10066E00796F757220736D696C652120546F2074DB
:10067E00686520776F726C6420796F75206D617973
:10068E00206265206F6E6520706572736F6E2C62CE
:10069E00757420746F206F6E6520706572736F6E47
:1006AE0020796F75206D61792062652074686520F0
:1006BE00776F726C64200054696D65205365740009
:1006CE00004D757369630000000000426F6F6B731D
:0F06DE00000000000052696E6720536574000031
:08136D00033A400712015EFE85
:10128900C2B1C2B275A0FF12122F7D017F381200C0
:10129900127D017F0C1200127D017F061200127D62
:0612A900017F01020012AA
:1012AF007580FFD2B2C2B0D2B1000000E58030E746
:0E12BF000AC2B20000D2B2000080F1C2B22218
:04000E007D017F01F0
:10001200ED60031212AF8F80C2B0C2B1D2B2000043
:0400220000C2B22244
:0512CD00C4540F93FF63
:1012D2001212AF8F80D2B0C2B1D2B2000000C2B23D
:0112E20022E9
:071325007FFF12132C7FFF74
:0D132C00EFD3940040077E6EDEFE1F80F3BD
:011339002291
:10122F007D017F40120012E4FEE4FDEE75F008A48C
:10123F00243FF582E43400F583E5822DF582E43511
:10124F0083F583E493FF1212D20DBD08DE0EBE03A9
:01125F00D8B6
:01126000226B
:100FA4007D017F90120012E4FEEE90002E93FF600C
:100FB400061212D20E80F2E4FE7D017F1C12001292
:100FC4000EBE10F5E4FE7D017F181200120EBE0560
:100FD400F5E4FE7D017F1C1200120EBE04F5E4FE52
:100FE4007D017F181200120EBE03F5E4FE7D017F21
:100FF4001C1200120EBE02F5E4FE7D017F181200E1
:10100400120EBE01F57D017FD3120012E4FEEE90B4
:0C101400003693FF60061212D20E80F22C
:0110200022AD
:0F133A007F08C313A2A692E7D2A5C2A5DFF4FFD6
:011349002281
:0612E300C2A4C2A5D2A4C2
:0F12E900EF7F08A2E092A6D2A5C2A5C313DFF43F
:0112F80022D3
:0F134A00AE051212E3AF061212E9C2A4D2A52219
:0A1359001212E312133AC2A4D2A547
:011363002267
:021261008F08F4
:10126300E4FD7F8E12134A7C031209E6FDAF0812D8
:10127300134A740129F9E43AFA05080508DCEA7D02
:06128300807F8E02134A79
:1012F9007E81E4FDAF0612135974572DF8A6070E27
:051309000E0DBD05EF13
:01130E0022BC
:10130F007EC1E4FDAF06121359744D2DF8A6070EDA
:05131F000E0DBD03EFFF
:0113240022A6
:05000300C2A4C2A52209
:1011FC00C2B57546FF7548FF85468D85488B43897A
:10120C0011D2A9C2ABC28CC28ED2AF7589FDC2C835
:10121C0075CCF075CDD875CAF075CBD8C2C9D2CA09
:03122C00D2AD221E
:03000B0002136479
:09136400B2B585458C85478A323B
:03002B00020E873B
:100E8700C0E0C0D075D000C000C007C2CF05442065
:100E9700A30375430420A203754303E54464647008
:100EA70067F544055DE55DC394095010855E90AF15
:100EB7005E7801EF08800123D8FDF55EE55DC394F8
:100EC700094015E55D9411500FAF5E7801EF08807A
:100ED7000103D8FDF55EF590E55DC39411400EE57D
:100EE7005D94195008E55E25E0F55EF590E55DC374
:100EF70094194009E55D942050036390FFE55DB4C4
:100F07002006755D00755EFED007D000D0D0D0E01A
:010F170032A7
:0806ED008B088A09890A8D0BB4
:1006F500E4F527E527250BFFD3940B401A74F42F57
:1007050025E024D9F582E43405F58374019325E0C9
:10071500FFE49333FE8013EF25E024D9F582E4341A
:1007250005F583E493FE740193FFE52725E0240F87
:10073500F8A60608A607E50CB40118E52725E02468
:100745000FF8C000E6FE08E67802CEC313CE13D834
:10075500F9801BE50CB4031CE52725E0240FF8C040
:1007650000E6FE08E67802C333CE33CED8F9D000D2
:10077500A60608F60527E527640C60030206F8E4DB
:10078500F532F533AB08AA09A90A85338285328388
:100795001209FF600D74022533F533E43532F53265
:1007A50080E2E4F528F529AB08AA09A90A8529827A
:1007B5008528831209FFF534E5292401FFE435284E
:1007C5008F82F5831209FFF535AC0DAD0E7E2E7FB8
:1007D500E0120A2C8E2A8F2BE52B7802CEC313CE7E
:1007E50013D8F9F5318E307802C333CE33CED8F92C
:1007F500FF7C007D05120A2CC3E5319FF531E530FC
:100805009EF530C28CD28EC3E5299533E528953205
:1008150040030209C8E53475F00A8485F036E534ED
:1008250075F00A8475F00A84ADF0E53475F06484DA
:10083500FFE5369005F0932F25E0240FF8E6FE0836
:10084500E6FFE5366047BD010BEF7802CEC313CE58
:1008550013D8F9FFBD030BEF7802C333CE33CED8DF
:10086500F9FFAB07AA06E4F9F87F507EC3FDFC1239
:1008750011B8E47B0AFAF9F8120A81C3E49FFFE490
:100885009EF5458F47F58CE547240CF58AE53575CA
:10089500F00A84E5F09005F893F537E53575F00A2B
:1008A5008475F00A8485F038E53575F06484F5398A
:1008B500E537FD7C00AE2AAF2B120A2CAB07AA0642
:1008C500E539B4010BEAC313FEEB132BFBEE3AFA41
:1008D500E5386401603DE538702EE537D394045062
:1008E5000DC3EB9531F52DEA9530F52C8029EBAE4E
:1008F500027802C333CE33CED8F9FF7C007D0512D2
:100905000A2C8E2C8F2D800FEAC313F52CEB13F5D3
:100915002D80048A2C8B2DE5367004F52CF52DC31E
:10092500EB952DF52FEA952CF52EE536601BD28C2F
:10093500852D27E527D39400400F308FFD85468D03
:1009450085488BC28F152780EAE52F452E601DC28D
:100955008CC2B5852F27E527D39400400F308FFD36
:1009650085468D85488BC28F152780EAE543B403FC
:1009750012C2AFC2CAC28E30A2FDD2AFD2CAD28EC7
:10098500E4F543E543B4040BE4F5438532288533A8
:1009950029800B74022529F529E43528F528AB08AB
:1009A500AA09A90A8529828528831209FFF534E554
:1009B500292401FFE435288F82F5831209FFF535D7
:1009C50002080CE4F543C2B5755EFE7590FFF5446B
:1009D500F55DC2CAC2ADC2AFC2A9C2ABC28CC28EDE
:0109E50022EF
:100B9E00121289120FA412132512132512000E120F
:100BAE0000037B007A00793A7F80121261121024C2
:100BBE007D017F84120012E4F55CE55075F00AA405
:100BCE0024C5F582E43406F583E582255CF582E4DE
:100BDE003583F583E493FF60071212D2055C80DA49
:100BEE001212F97D017FC0120012E55BC4540F9002
:100BFE0005FF93FF1212D2E55B1212CE7F01121285
:100C0E00D2E55A1212CDE55A1212CEE4FF1212D2CA
:100C1E007F201212D21212D2E5591212CDE55912BC
:100C2E0012CE7F3A1212D2E5581212CDE558121298
:100C3E00CE7F3A1212D2E5571212CDE5571212CECE
:100C4E00E550B40206E4F556121173E550B40103F3
:100C5E00120DDFE550B40303120D2CE550600302B4
:080C6E000BBB120C76020BBB5C
:03102100E4F543B0
:10102400AFA053070FEF640F6068EF24F9605124F9
:10103400FC603C24FE601D147058EF640F6007AF21
:10104400A053070F80F4E5507003755004155075D4
:101054004301803BEF640F6007AFA053070F80F498
:101064000550754302E550B40403E4F5508020EFC5
:10107400640F6007AFA053070F80F4754303800F1C
:10108400EF640F6007AFA053070F80F47543041299
:02109400000E4C
:011096002237
:10109700AC077D017F80120012ECC43354E0F55C8D
:1010A700EC75F020A42410FFE435F0FEE55CC39F47
:1010B700EE6480F87480985010E55C90061993FFF1
:1010C70060071212D2055C80D77D017FC012001223
:1010D700ECC43354E02410F55CEC75F020A4242014
:1010E700FFE435F0FEE55CC39FEE6480F8748098FA
:1010F7005010E55C90061993FF60071212D2055C49
:0311070080D7226C
:10117300121021E5436403703BF543802DE543647E
:1011830004602E121024E543B4010EE4F543E55642
:1011930060021556AF56121097E543B402DFE4F52B
:1011A30043E556C3940550020556AF561210978077
:0511B300CC7550022282
:100D2C00121021E54364036003020DDEF543E54335
:100D3C0064047003020DDB7D017F82120012E54911
:100D4C009005FF93FF1212D2E54A93FF1212D27F45
:100D5C003A1212D2E54B93FF1212D2E54C93FF12CA
:100D6C0012D2121024E54364017026F543054AE5BE
:100D7C004AB40A05E4F54A0549E549B4020AE54ACC
:100D8C00B40405E4F54AF549E549C454F0454AF57F
:100D9C0042E543B40220E4F543054CE54CB40A0D9E
:100DAC00E4F54C054BE54BB40603E4F54BE54BC4BD
:100DBC0054F0454CF541E54364036003020D3AFBE6
:100DCC007A0079407FC0121261754304020D3A75A6
:030DDC005003229F
:100C7600E4F543121024E54364036003020D2BF5EB
:100C860043E54364047003020D287D017F82120050
:100C960012E5529005FF93FF1212D2E55393FF120D
:100CA60012D27F3A1212D2E55493FF1212D2E555B0
:100CB60093FF1212D2121024E54364017026F54305
:100CC6000553E553B40A05E4F5530552E552B4025B
:100CD6000AE553B40405E4F553F552E552C454F05D
:100CE6004553F53FE543B40220E4F5430555E55584
:100CF600B40A0DE4F5550554E554B40603E4F55479
:100D0600E554C454F04555F53EE5436403600302DB
:100D16000C87FB7A00793D7F8012126175430402CD
:060D26000C87E4F55022E9
:10110A0012000E7F80120012E4F55CE55C9006097D
:10111A0093FF60071212D2055C80F01211FCE551B0
:10112A00146012146017146025240370357BFF7A4B
:10113A000379CD800E7BFF7A04794D80067BFF7A96
:10114A000279AF750C03750D01750E2C800F7BFFAC
:10115A007A007993750C03750D01750E54E4FD122E
:09116A0006ED7D017F0102001277
:100DDF00E54364036003020E86F54312000EE543FC
:100DEF0064047003020E801210247D017F801200B4
:100DFF0012E4F55CE55075F00FA42457F582E43446
:100E0F0000F583E582255CF582E43583F583E49371
:100E1F00FF60071212D2055C80DAE543B403BF12FC
:100E2F0011FCE55014601214601714602524037030
:100E3F00357BFF7A0379CD800E7BFF7A04794D8065
:100E4F00067BFF7A0279AF750C03750D01750E2CB9
:100E5F00800F7BFF7A007993750C03750D01750E6A
:100E6F0054E4FD1206ED85505130A303020DED80C1
:080E7F00F812000E755001226B
:100F2400020B9EE493A3F8E493A34003F68001F23A
:100F340008DFF48029E493A3F85407240CC8C333CE
:100F4400C4540F4420C8834004F456800146F6DF9D
:100F5400E4800B010204081020408090136DE47EAD
:100F6400019360BCA3FF543F30E509541FFEE49392
:100F7400A360010ECF54C025E060A840B8E493A359
:100F8400FAE493A3F8E493A3C8C582C8CAC583CA84
:100F9400F0A3C8C582C8CAC583CADFE9DEE780BE3C
:011375000077
:1009E600BB010689828A83E0225002E722BBFE020F
:0909F600E32289828A83E4932242
:1009FF00BB010CE58229F582E5833AF583E02250AD
:100A0F0006E92582F8E622BBFE06E92582F8E222F6
:0D0A1F00E58229F582E5833AF583E4932210
:100A2C00BC000BBE0029EF8DF084FFADF022E4CCAE
:100A3C00F875F008EF2FFFEE33FEEC33FCEE9DEC77
:100A4C00984005FCEE9DFE0FD5F0E9E4CEFD22EDBD
:100A5C00F8F5F0EE8420D21CFEADF075F008EF2F07
:100A6C00FFED33FD4007985006D5F0F222C398FDF8
:050A7C000FD5F0EA2295
:100A8100E88FF0A4CC8BF0A42CFCE98EF0A42CFC14
:100A91008AF0EDA42CFCEA8EF0A4CDA8F08BF0A492
:100AA1002DCC3825F0FDE98FF0A42CCD35F0FCEBF1
:100AB1008EF0A4FEA9F0EB8FF0A4CFC5F02ECD39B6
:0F0AC100FEE43CFCEAA42DCE35F0FDE43CFC2223
:1011B800C2D5E830E70FB2D5E4C39BFBE49AFAE462
:1011C80099F9E498F8EC30E717B2D51211EE120B42
:1011D8000CE4C39BFBE49AFAE499F9E498F88003D9
:1011E800120B0C30D50DE4C39FFFE49EFEE49DFD79
:0411F800E49CFC2255
:100AD00075F008758200EF2FFFEE33FECD33CDCCDD
:100AE00033CCC58233C5829BED9AEC99E582984060
:100AF0000CF582EE9BFEED9AFDEC99FC0FD5F0D63D
:100B0000E4CEFBE4CDFAE4CCF9A88222B800C1B966
:100B10000059BA002DEC8BF084CFCECDFCE5F0CBA4
:100B2000F97818EF2FFFEE33FEED33FDEC33FCEBDD
:100B300033FB10D703994004EB99FB0FD8E5E4F998
:100B4000FA227818EF2FFFEE33FEED33FDEC33FC85
:100B5000C933C910D7059BE99A4007EC9BFCE99A79
:100B6000F90FD8E0E4C9FAE4CCFB2275F010EF2FBE
:100B7000FFEE33FEED33FDCC33CCC833C810D707BE
:100B80009BEC9AE899400AED9BFDEC9AFCE899F8F9
:0E0B90000FD5F0DAE4CDFBE4CCFAE4C8F9228C
:00000001FF
