:0C0162000A083F065B4F666D7D077F6F4B
:0701360012008F7FF47E012F
:10013D00EF4E6010007D027CC7DCFEDDFCEF1F7012
:04014D00EF1E80EC35
:01015100228B
:10008F00EF14B4080050549000A475F003A4C58376
:10009F0025F0C583730200BC0200C00200C4020039
:1000AF00C80200CC0200D40200DC0200E4D2A4801B
:1000BF000ED2A48012D2A48016D2A4801AC2A4D2C7
:1000CF00A3D2A28016C2A4D2A3C2A2800EC2A4C27F
:1000DF00A3D2A28006C2A4C2A3C2A274082DF8E6BE
:0D00EF00F5807F017E0012013DE4F58022C6
:0B016F00D2A4C2A3D2A275807D80FE46
:100152007D017F011201367D027F0212013680FE8F
:1000FC007D027F0112008FE4FD7F0212008F7D02D2
:10010C007F0312008FE4FD7F0412008F7D017F05B9
:10011C0012008F7D037F0612008F7D057F07120072
:0A012C008F7D077F0812008F80C648
:03017A000200FC84
:03000000020003F8
:0C000300787FE4F6D8FD75811102004AF8
:10000F0002017AE493A3F8E493A34003F68001F28C
:10001F0008DFF48029E493A3F85407240CC8C333F2
:10002F00C4540F4420C8834004F456800146F6DFC1
:10003F00E4800B0102040810204080900162E47EEE
:10004F00019360BCA3FF543F30E509541FFEE493B6
:10005F00A360010ECF54C025E060A840B8E493A37D
:10006F00FAE493A3F8E493A3C8C582C8CAC583CAA8
:10007F00F0A3C8C582C8CAC583CADFE9DEE780BE60
:01016E000090
:00000001FF
