:100F5200202000543A0054483A00544C3A004F566C
:100F62003A48004F563A4C00202020200020202DE5
:100F720020202D20200020203A20203A202000206E
:100F8200202020202020202020202000202020207F
:0C0F9200202020202020202020202000F3
:09152300071216061D123B3203EB
:04144B007F147E008C
:10144F00EF4E6010007D027CC7DCFEDDFCEF1F70ED
:04145F00EF1E80EC10
:011463002266
:0614E900C2A58F80D2A70E
:0814EF007F027EEFDEFEDFFC50
:0114F70022D2
:0A150500C2A61214E9C2A70214EFF7
:1013BA00CFCDCFCECCCE12035E7C007D0A12035E67
:0413CA00ED2430FFDF
:0A13CE00D2A61214E9C2A70214EF20
:1013D800AE07EEFB7A0064017004ED148009EB643B
:0E13E800024A7009ED243F4480FF12150522D1
:1014D5007F381215057F0C1215057F061215057F3D
:0414E50001021505E6
:0A150F00AC031213D8AF040213CE90
:081263007BFF7A0F79527F0135
:06126B008B258A2689276D
:101271001213D8E4FDAB25AA26A9278D8275830018
:0C12810012031FFF60061213CE0D80E95F
:01128D00223E
:0A123200EF24FFFDEE34FFFC7F0AFD
:08123C008E2A8F2B8C2C8D2DC6
:101244007F017E00E4FBEBC3952DE52C6480F874EC
:0E1254008098500AAC2AAD2B12034C0B80E898
:011262002269
:0E11CE00E512FB3395E0FA7529027D017F01E1
:0411DC008A278B28AB
:1011E0001213D8AA29EAFF7E00D394007480948059
:0F11F000400D121232AC27AD281213BA1A80E646
:0111FF0022CD
:0E0EFA00E51DFB3395E0FA7527037D047F02AA
:040F08008B828A83CB
:100F0C001213D8C3E58364809480400D7F2B121399
:100F1C00CE85832885822980107F2D1213CEC3E4C1
:100F2C009582F529E49583F528AA27EAFF7E00D35C
:100F3C00940074809480400D121232AC28AD2912AA
:050F4C0013BA1A80E653
:010F5100227D
:040F9E008A308B31D9
:100FA2001213D8AA32EAD39400748094804037EAAC
:100FB20024FFFDE434FFFC7F107E0012123CAC30B3
:100FC200AD31CFCDCFCECCCE12035EEF540FFEC3E8
:100FD200940A74809480EE5004243080022437FFF7
:060FE2001213CE1A80BFBD
:010FE80022E6
:0410E5008A358B3687
:1010E9001213D8AA37EAFF7E00D394007480948043
:1010F9004026EF24FFFDEE34FFFC7F0212123CACC8
:1011090035AD36CFCDCFCECCCE12035EEF54012410
:0811190030FF1213CE1A80CD45
:0111210022AB
:100A6C00E4FB7590FFC29320970E7F14FE12144F77
:100A7C003097FD12144B7B0120960B12144B3096C1
:100A8C00FD12144B7B0520950B12144B3095FD1267
:100A9C00144B7B0920940B12144B3094FD12144B05
:100AAC007B0D7590FFC29220970B12144B3097FD63
:100ABC0012144B7B0220960B12144B3096FD121421
:100ACC004B7B0620950B12144B3095FD12144B7B6F
:100ADC000A20940B12144B3094FD12144B7B0E75A0
:100AEC0090FFC29120970B12144B3097FD12144BB0
:100AFC007B0320960B12144B3096FD12144B7B0784
:100B0C0020950B12144B3095FD12144B7B0B20943B
:100B1C000B12144B3094FD12144B7B0F7590FFC2CB
:100B2C009020970B12144B3097FD12144B7B042022
:100B3C00960B12144B3096FD12144B7B0820950B20
:100B4C0012144B3095FD12144B7B0C20940B121489
:0B0B5C004B3094FD12144B7B10AF03D4
:010B6700226B
:101464005389F0438901758A66758CFCC28DD28CD0
:07147400D2A9D2AFC2B922D8
:100FE900E4FB20B10E7F14FE12144F30B1FD121430
:100FF9004B7B0120B00B12144B30B0FD12144B7B0C
:101009000220B20B12144B30B2FD12144B7B032099
:0F101900B30B12144B30B3FD12144B7B04AF0317
:0110280022A5
:05153D00E4AF0EF50E05
:011542002286
:1014A900E4FF20B1010F20B0027F0220B2027F03C6
:0514B90020B3027F04D6
:0114BE00220B
:101029008508091214A98F08AF097E00EF640170C1
:1010390007E5087003750E01EF64024E7007E508B5
:101049007003750E02E50964037007E508700375FE
:0F1059000E03E50964047007E5087003750E04C3
:011068002265
:05154300007FF7DFFE50
:011548002280
:04137600AD07AC060D
:10137A00E4FBFAED25E0FFEC33FEC3EB9FEA9E5057
:0D138A000CB2A51215430BBB00010A80E652
:011397002233
:1014300075985043878053890F438920758BF475C5
:0B1440008DF4C2ABD28ED2AFD2AC2232
:080003008F993099FDC299228A
:02119800AD07A1
:10119A00E4FBEBC394087480948050237E0074802F
:1011AA00A803088006CEA2E713CE13D8F8FFEDF500
:1011BA0082EF558224FF92B4D2B6C2B60B80D3D244
:0311CA00B5C2B5F6
:0111CD0022FF
:05154900C2B6C2B5228C
:10135200AE05AC07AF06121198AF04A80774800857
:101362008002C313D8FCF4F5807F017E0012144F73
:041372007580FF2261
:05154E00C2B5C2B62287
:020DDC00A90765
:100DDE00D2B5E4FBEBC394087480948050227E005D
:100DEE007401A803088005C333CE33CED8F9FFE9CA
:100DFE00F582EF558224FF92B4D2B6C2B60B80D4E0
:100E0E00E4FBEBC394087480948050227E0074013E
:100E1E00A803088005C333CE33CED8F9FFEDF58293
:100E2E00EF558224FF92B4D2B6C2B60B80D4C2B5AF
:010E3E002291
:020E3F00AD07FD
:100E4100E4F9430501D2B5FBEBC3940874809480A7
:100E510050227E007401A803088005C333CE33CE2F
:100E6100D8F9FFEDF582EF558224FF92B4C2B6D2D4
:100E7100B60B80D4E4FBEBC39408748094805017C4
:100E8100D2B6C2B630B40DA8037401088002C333D0
:0D0E9100D8FC42010B80DFC2B5C2B4AF0136
:010E9E002231
:100B6800E4FD7F8E120DDCE51275F00A1202FDC459
:100B780054F0FFE51275F00A1202FDAEF0EF2EFDFB
:100B88007F8C120DDCE51375F00A1202FDC454F0D7
:100B9800FFE51375F00A1202FDAEF0EF2EFD7F8817
:100BA800120DDCE51475F00A1202FDC454F0FFE5DD
:100BB8001475F00A1202FDAEF0EF2EFD7F86120DBD
:100BC800DCE51575F00A1202FDC454F0FFE5157551
:100BD800F00A1202FDAEF0EF2EFD7F84120DDCE567
:100BE8001675F00A1202FDC454F0FFE51675F00AF6
:100BF8001202FDAEF0EF2EFD7F82120DDCE51775B7
:100C0800F00A1202FDC454F0FFE51775F00A12024B
:100C1800FDAEF0EF2EFD7F80120DDCE51875F00AB1
:100C28001202FDC454F0FFE51875F00A1202FDAE79
:100C3800F0EF2EFD7F8A120DDC7D807F8E020DDCA9
:100C48007F8C120E3FEFC4540F75F00AA4FEEF54C8
:100C58000F2EF5127F88120E3FEFC4540F75F00A5D
:100C6800A4FEEF540F2EF5137F86120E3FEFC454E7
:100C78000F75F00AA4FEEF540F2EF5147F84120EA0
:100C88003FEFC4540F75F00AA4FEEF540F2EF5156C
:100C98007F82120E3FEFC4540F75F00AA4FEEF5482
:100CA8000F2EF5167F80120E3FEFC4540F75F00A11
:100CB800A4FEEF540F2EF5177F8A120E3FEFC4548F
:0C0CC8000F75F00AA4FEEF540F2EF51873
:010CD40022FD
:1013F600C2AFD2B7C2B77FF7DFFED2B77F20DFFE1C
:0D140600A2B7E433FE7FF7DFFED2AFAF06E2
:0114130022B6
:1014BF00C2AFC2B77E04DEFEEF24FF92B77E18DE06
:0514CF00FED2B7D2AF10
:0114D40022F5
:10141400C2AFC2B77F02DFFED2B77F02DFFEA2B740
:0B142400E433FE7F18DFFED2AFAF06FE
:01142F00229A
:02139800AD079F
:10139A00E4FCECC39408748094805013A80474018C
:0F13AA00088002C333D8FC5DFF1214BF0C80E330
:0113B9002211
:10130700E4FDFCECC3940874809480501612141406
:10131700EF600DA8047401088002C333D8FC4205AE
:051327000C80E0AF05A1
:01132C00229E
:0D14F8001213F67FCC1213987F4402139854
:10128E001213F67FCC1213987FBE12139812130707
:10129E00AB07121307EFFEEBFFFDAC06EC12024399
:0A12AE00E4FBFA7980784102011791
:09152D00D2A0D2A1C2A0C2A122E9
:07153600C2A0D2A1D2A02245
:02120000AD0738
:10120200E4FBEBC394087480948050237E007480C6
:10121200A803088006CEA2E713CE13D8F8FFEDF597
:0F12220082EF558224FF92A0D2A1C2A10B80D3EC
:01123100229A
:1012E000E4FFD2A0FEEEC39408748094805017D21D
:1012F000A130A00DA8067480088002C313D8FC4258
:0613000007C2A10E80DF10
:0113060022C4
:0A151900EF24FF92A0D2A1C2A1228C
:0B147B00121200121486AF04121200BF
:0B148600D2A0D2A1A2A0E433FFC2A1BB
:011491002238
:10149200AC05AA0712152D7FA0121200121486AFF6
:0714A2000212147B02153653
:02132D00AC070B
:10132F0012152D7FA012147B12152D7FA112120002
:10133F001214861212E0AE077F011215191215361C
:02134F00AF06E7
:011351002279
:100E9F00120C481211CEE513FB3395E0FA752902B7
:100EAF007D047F011211DCE514FB3395E0FA7529FF
:100EBF00027D077F011211DCE515FB3395E0FA7512
:100ECF0029027D017F021211DCE516FB3395E0FA52
:100EDF007529027D047F021211DCE517FB3395E0C3
:0B0EEF00FA7529027D077F020211DC6A
:10048F00AF1E7E00EF6402700B050FE50F75F006CF
:10049F008485F00FEF64034E60030205DA741225B2
:1004AF000FF806AF12EF3395E0FED3EF9463EE64CF
:1004BF008094804003E4F512AF13EF3395E0FED341
:1004CF00EF940CEE648094804003751301AF13EF2B
:1004DF003395E0FEEF64014E6024EF64034E601E1F
:1004EF00EF64054E6018EF64074E6012EF64084E1C
:1004FF00600CEF640A4E6006EF640C4E7014AF147C
:10050F00EF3395E0FED3EF941FEE64809480407C30
:10051F008077AF13EF3395E0FEEF64044E6012EF78
:10052F0064064E600CEF64094E6006EF640B4E706C
:10053F0014AF14EF3395E0FED3EF941EEE64809466
:10054F008040498044AF13EF3395E0FEEF64024ED5
:10055F00703AE51275F0041202FDAFF0EF3395E03B
:10056F004F7014AF14EF3395E0FED3EF941DEE648C
:10057F0080948040178012AF14EF3395E0FED3EFD5
:10058F00941CEE648094804003751401AF15EF3313
:10059F0095E0FED3EF9417EE648094804003E4F56A
:1005AF0015AF16EF3395E0FED3EF943BEE648094D6
:1005BF00804003E4F516AF17EF3395E0FED3EF94C9
:1005CF003BEE648094804003E4F517E51E640460FD
:1005DF00030207557412250FF816AF12EF3395E08B
:1005EF00C3648094805003751263AF13EF3395E0AB
:1005FF00FEC3EF9401EE64809480500375130CAF2B
:10060F0013EF3395E0FEEF64014E6024EF64034E69
:10061F00601EEF64054E6018EF64074E6012EF64C2
:10062F00084E600CEF640A4E6006EF640C4E702D9E
:10063F00AF14EF3395E0FEC3EF9401EE6480948026
:10064F00500375141FAF14EF3395E0FED3EF941FD3
:10065F00EE648094805003020725020722AF13EF48
:10066F003395E0FEEF64044E6012EF64064E600CAB
:10067F00EF64094E6006EF640B4E7029AF14EF3331
:10068F0095E0FEC3EF9401EE6480948050037514DF
:10069F001EAF14EF3395E0FED3EF941EEE648094FB
:1006AF00804073806EAF13EF3395E0FEEF64024E20
:1006BF007064E51275F0041202FDAFF0EF3395E0B0
:1006CF004F7029AF14EF3395E0FEC3EF9401EE6442
:1006DF00809480500375141DAF14EF3395E0FED353
:1006EF00EF941DEE64809480402C8027AF14EF337D
:1006FF0095E0FEC3EF9401EE64809480500375146F
:10070F001CAF14EF3395E0FED3EF941CEE6480948E
:10071F00804003751401AF15EF3395E0C3648094E7
:10072F00805003751517AF16EF3395E0C3648094AF
:10073F0080500375163BAF17EF3395E0C364809479
:10074F0080500375173BE50F700DE51164017007BD
:10075F007D0112126380031211CEE50F6401700D3B
:10076F00E511640170077D041212638011E513FB1C
:10077F003395E0FA7529027D047F011211DCE50F34
:10078F0064027015E5116401700F7BFF7A0F7952C7
:10079F007D077F0112126B8011E514FB3395E0FA90
:1007AF007529027D077F011211DCE50F64037015B7
:1007BF00E5116401700F7BFF7A0F79527D017F0283
:1007CF0012126B8011E515FB3395E0FA7529027D46
:1007DF00017F021211DCE50F64047015E51164014D
:1007EF00700F7BFF7A0F79527D047F0212126B809C
:1007FF0011E516FB3395E0FA7529027D047F02128D
:10080F0011DCE50F64057013E5116401700D7BFFBA
:10081F007A0F79527D077F0202126BE517FB339532
:0D082F00E0FA7529027D077F021211DC221C
:03000B0002115F80
:09115F00C0E0C0D075D000C0074B
:10116800758A18758CFC050BE50B7002050AC3948B
:10117800F4E50A94014012750A00750B00E5117038
:09118800047F0180027F008F1139
:07119100D007D0D0D0E032FE
:10083C001214F87FE87E0312144FE4FF12132D8F6D
:10084C001D7F0112132D8F0CAF1DEF3395E0FED3DE
:10085C00EF947DEE64809480501FAF0CEF3395E0E5
:10086C00FEC3EF94C9EE6480947F400DD3E50C6415
:10087C0080F8E51D6480985006751D14750C0F12D8
:10088C0014D57BFF7A0F79557D017F0112126B7B9A
:10089C00FF7A0F79587D017F0212126B7BFF7A0F62
:1008AC00795C7D097F0212126B120EFAE50CFB3398
:1008BC0095E0FA7527037D0C7F02120F0812146461
:1008CC00120FE98F0D1214F812128E8F1C8E1B8DC5
:1008DC001A8C19E4FFFEFDFCAB1CAA1BA91AA81963
:1008EC001201B4501E7B2D7D037F0112150FAF1C1E
:1008FC00AE1BAD1AAC1912022D8F228E218D208CBD
:10090C001F80157B2B7D037F0112150F851C228503
:10091C001B21851A2085191FAF22AE21AD20AC1FDB
:10092C0012027CAB07AA067529037D047F01121104
:10093C00DC7B2E7D077F0112150FE4FFFE7DC87C4A
:10094C0042AB22AA21A920A81F12000E12027CE49D
:10095C007B64FAF9F81203EF7529027D087F011206
:10096C0011DCE50D7003020A0EFF7E0064017017A6
:10097C00051DAD1DED3395E0FCD3ED947DEC64804D
:10098C0094804003751D7DEF64024E7011151DD3CC
:10099C00E50C6480F8E51D6480985002051DE50D9A
:1009AC0064037011050CC3E51D6480F8E50C6480CC
:1009BC00984002150CE50D64047017150CAF0CEF84
:1009CC003395E0FEC3EF94C9EE6480947F500375B9
:1009DC000CC9120EFAE50CFB3395E0FA7527037D72
:1009EC000C7F02120F08AD1DE4FF1214927F057EDE
:1009FC000012144FAD0C7F011214927F057E001271
:100A0C00144FAC1DEC120248AB1CAA1BA91AA81956
:100A1C001201B46011400F7FF47E011213767BFF3C
:100A2C007A0F79608020AC0CEC120248AB1CAA1B2C
:100A3C00A91AA8191201B450177FF47E011213766B
:100A4C007BFF7A0F79657D0D7F0112126B0208CC4A
:100A5C007BFF7A0F796A7D0D7F0112126B0208CC35
:100D61001214D512154E1214647BFF7A0F796F7D20
:100D7100017F0112126B7BFF7A0F79787D017F026F
:100D810012126B120B68AF16EF3395E0FEEF643B66
:100D91004E7014AF17EF3395E0FEEF643B4E7007D2
:100DA1007FE87E03121376120A6C8F1EEF640170C6
:100DB10018AF10FEEF7007751001F50F800BEF648F
:100DC100014E7005F510120B68E5107003120E9FAD
:0B0DD100E510640170B012048F80ABCD
:10112200E4F523F5241214D50524E52470020523E1
:101132007FE87E0312144F7BFF7A0F79817D047F53
:101142000112126B7BFF7A0F798E7D017F021212E0
:0D1152006B752903AB24AA231211D880CBA2
:1010690075230075243C1214D57FE87E0312144FB2
:101079007BFF7A0F79817D047F0112126B7BFF7AE6
:101089000F798E7D017F0212126B752903AB24AA99
:0E109900231211D8E524152470CF152380CB27
:1010A7007523007524B41214D57FE87E0312144FFC
:1010B7007BFF7A0F79817D047F0112126B7BFF7AA8
:1010C7000F798E7D017F0212126B752903AB24AA5B
:0E10D700231211D8E524152470CF152380CBE9
:1012B800120A6C8F1EE51E24FA6010146010146068
:1012C800101460102404700F020D6102083C021112
:0812D800220210691210A72286
:10000E00EC4D6011E8497017ED33EC3304600DE4EC
:10001E00FCFFFEFD22E933E8330470F80202E81219
:10002E0002B358046009E4CC24815006285009021A
:10003E0002F22840030202EFC0E0EB4A7044B9809E
:10004E0006D0E0FB0202DEEF4E701CBD8008EBFF17
:10005E00EAFEE9FD80EBE98DF0A4FEE5F00200F783
:10006E00E9CDF9EAFEEBFFEF89F0A4FCE5F0CE89CD
:10007E00F0A42EFFE435F0CD89F0A42DFEE435F08A
:10008E008067EF4E7005BD80D780C3EF8BF0A4ACB8
:10009E00F0EE8BF0A42CFCE435F0F8EF8AF0A42CF3
:1000AE00E5F038FCE433CB8DF0A42CFCE5F03BF806
:1000BE00EE8AF0A42CFCE5F038F8E433CF89F0A4F6
:1000CE002CFCE5F038CF3400CE89F0A42FFFE5F0FC
:1000DE003EFEE433C98DF0A42EFEE5F039CD8AF054
:1000EE00A42FFFE5F03EFEE43DFD33D0E0FB5007CC
:1000FE000BBB000F0202F2EC2CFCEF33FFEE33FED3
:06010E00ED33FD0202CA00
:100114000202F2EC5D046005E8590470030202E88F
:100124001202B3580460F6EC4860F2EC7004FDFE71
:10013400FF22C860DB2481C85009C39860025006BE
:100144000202EF9850CAF582E9294B4A7005AB8246
:100154000202DE75F0007C1A7880C3EF9BEE9AED04
:1001640099400DC3EF9BFFEE9AFEED99FDE842F036
:10017400DC23ACF0D0E0FFD0E0FED0E0FDAB822089
:10018400E7101BEB60BAEC2CFCEF33FFEE33FEED13
:1001940033FD0202CAE803F830E705C0F075F00049
:1001A400EF2FFFEE33FEED33FD40B830E7C280AAF7
:1001B40074F8CC6480CCC86480C8F58204604FC3F2
:1001C400EB9FF5F0EA9E42F0E99D42F0E89C45F091
:1001D400603C501DE5825FFFE582D313CB5BCBF41B
:1001E4002B5582FB50280ABA002409B90020088044
:1001F4001DE5825BFBE582D313CF5FCFF4C3132FDE
:100204005582FF50090EBE00050DBD00010CC3EB65
:100214009FF5F0EA9E42F0E99D42F0E89C45F060CB
:0902240007CC4820E701B3EC22ED
:10022D00ED33EC33600A047003BD8004ECB2E7FCDF
:01023D00229E
:10023E0075F020800E75F010800575F0087D007E3B
:10024E00007F003392D530D503120481EC33401079
:10025E00EF33FFEE33FEED33FDEC33FCD5F0ED2244
:0E026E00E5F0247EA2D513CC92E7CDCEFF2280
:10027C00EDD2E7CD33EC3392D524814006E4FFFE7A
:10028C00FDFC22FCE4CFCECDCC24E0501174FF80D9
:10029C00EDC3CC13CCCD13CDCE13CECF13CF047076
:0702AC00F030D5DE020481F1
:1002B300E9D2E7C933E833F892D5EDD2E7CD33EC91
:0702C30033FC5002B2D5220A
:1002CA00EC30E7100FBF000C0EBE00080DBD000495
:1002DA000BEB6014A2D5EB13FCED92E7FD2274FF41
:1002EA00FCFDFEFF22E480F8A2D574FF13FC7D809A
:0302FA00E480EFAE
:03000000020CD51A
:0C0CD500787FE4F6D8FD758137020D1C15
:1002FD00C2D530F707B2D563F0FF05F030E70CB289
:10030D00D5F4048463F0FF05F080018430D502F448
:02031D000422B8
:10031F00BB010CE58229F582E5833AF583E0225093
:10032F0006E92582F8E622BBFE06E92582F8E222DD
:0D033F00E58229F582E5833AF583E49322F7
:10034C00EF8DF0A4A8F0CF8CF0A428CE8DF0A42EC5
:02035C00FE227F
:10035E00BC000BBE0029EF8DF084FFADF022E4CC83
:10036E00F875F008EF2FFFEE33FEEC33FCEE9DEC4C
:10037E00984005FCEE9DFE0FD5F0E9E4CEFD22ED92
:10038E00F8F5F0EE8420D21CFEADF075F008EF2FDC
:10039E00FFED33FD4007985006D5F0F222C398FDCD
:0503AE000FD5F0EA226A
:1003B30075F008758200EF2FFFEE33FECD33CDCC01
:1003C30033CCC58233C5829BED9AEC99E582984084
:1003D3000CF582EE9BFEED9AFDEC99FC0FD5F0D661
:1003E300E4CEFBE4CDFAE4CCF9A88222B800C1B98B
:1003F3000059BA002DEC8BF084CFCECDFCE5F0CBC9
:10040300F97818EF2FFFEE33FEED33FDEC33FCEB01
:1004130033FB10D703994004EB99FB0FD8E5E4F9BC
:10042300FA227818EF2FFFEE33FEED33FDEC33FCA9
:10043300C933C910D7059BE99A4007EC9BFCE99A9D
:10044300F90FD8E0E4C9FAE4CCFB2275F010EF2FE2
:10045300FFEE33FEED33FDCC33CCC833C810D707E2
:100463009BEC9AE899400AED9BFDEC9AFCE899F81D
:0E0473000FD5F0DAE4CDFBE4CCFAE4C8F922B0
:0E048100C3E49FFFE49EFEE49DFDE49CFC228C
:100CE1000212B8E493A3F8E493A34003F68001F25F
:100CF10008DFF48029E493A3F85407240CC8C33314
:100D0100C4540F4420C8834004F456800146F6DFE2
:100D1100E4800B0102040810204080901523E47E3A
:100D2100019360BCA3FF543F30E509541FFEE493D7
:100D3100A360010ECF54C025E060A840B8E493A39E
:100D4100FAE493A3F8E493A3C8C582C8CAC583CAC9
:100D5100F0A3C8C582C8CAC583CADFE9DEE780BE81
:01152C0000BE
:00000001FF
