:1007FE0044657369676E3A4C6958696E4C6F6E67E3
:10080E00004D792049443A32303831373134323163
:10081E00000A73686F7720736F6D65200A706572BA
:10082E00736F6E616C200A696E66726F6D617469AA
:10083E006F6E210A000A706C6561736520656E74B7
:10084E00657220796F75720A70617373776F726457
:10085E000A00496E70757420707377643A00596F90
:10086E0075206572726F7220302054696D65002A92
:10087E0000707265737365642025640A002A2A006D
:10088E002A2A2A002A2A2A2A00707265737365643E
:10089E002025640A0A0020202020000A57656C6378
:1008AE006F6D6520596F7520746F0A476F20486F02
:1008BE006D65210A000A50617373776F726473203D
:1008CE006572726F720A706C6561736520747279ED
:1008DE000A616761696E210A004163636F756E7408
:1008EE00204C6F636B6564210043616C6C20313466
:1008FE003031383536313533000A496E7075742013
:10090E006572726F720A6265796F6E64203320743D
:10091E00696D65730A746865206163636F756E74C3
:10092E000A6C6F636B6564210A706C656173652078
:10093E00436F6E74616374200A61646D696E6973CE
:10094E00747261746F720A000A5072657373656413
:10095E0020436C65616E210A000A506C65617365F7
:10096E00205265656E74657220596F75720A5061FA
:10097E007373776F72640A00456E746572204F6CE4
:10098E006420707377643A000A456E74657220793C
:10099E006F7572206F6C640A70737764206E6F7758
:1009AE003A0A00456E746572204E65772070737733
:1009BE00643A000A4F6C642050737764204572725B
:1009CE006F72210A00596F75206572726F72202046
:0609DE002054696D650064
:100BB2007BFF7A0779FEE4FDFF120BE17BFF7A08E7
:100BC200790FE4FD7F01120BE1E4F53074FFFFFEC3
:0F0BD200120E160530E530C3940440F0020CC03B
:100D70007D017F01120C0F7D027F02120C0F7D039B
:050D80007F03020C0FCF
:0F0DD100120B7B7808EF08800103D8FDFF7E002E
:010DE00022F0
:10000300E4F522F523C200C201C202C203D204F501
:1000130026F527120D29120B347BFF7A08791F125C
:100023000504120BB27BFF7A08794312050474FFAF
:10003300FFFE120E16120D707BFF7A087960E4FD45
:10004300FF120BE17BFF7A08796CE4FD7F01120B51
:10005300E11209E47524008F25C3E525940AE524FC
:10006300648094804013E525640E4524600BE525E8
:10007300640D4524600302010920040302010905FC
:1000830022E52224FE602114603714605724037094
:1000930075AE24AF257C037DE8120AC18E288F2913
:1000A3007BFF7A08797D8015AE24AF257C007D64C3
:1000B300120AC18E2A8F2B7BFF7A08798B7D0B80E6
:1000C30016AE24AF257C007D0A120AC18E2C8F2D1B
:1000D3007BFF7A08798E0DE4FF120BE17BFF7A0830
:1000E300797F801985242E85252F7BFF7A087992C5
:1000F3007D0BE4FF120BE17BFF7A087997852433AC
:10010300852534120504E522D394054003020294A5
:10011300E525940BE524648094805003020294E562
:10012300246003020294E52524F370030202781489
:100133006003020294E529252BFFE528352AFEE515
:100143002D2FFFE52C3EFEE52F2FF527E52E3EF55F
:1001530026E4F522E523C39403500D7BFF7A087947
:10016300A47D0BE4FF120BE1300125AD277F0112C3
:100173000C0FC201120CC07BFF7A087960E4FDFF0B
:10018300120BE17BFF7A08796CE4FD7F01120BE12E
:10019300300225AD277F02120C0FC202120CC07B66
:1001A300FF7A087960E4FDFF120BE17BFF7A08799F
:1001B3006CE4FD7F01120BE1300325AD277F0312B1
:1001C3000C0FC203120CC07BFF7A087960E4FDFFB9
:1001D300120BE17BFF7A08796CE4FD7F01120BE1DE
:1001E3007F01120DD1EF65277003EE6526601C7F3A
:1001F30002120DD1EF65277003EE6526600D7F03B4
:10020300120DD1EFB52718EEB52614C2A3C2A4D29E
:10021300A57BFF7A0879A9120504E4F523801DD292
:10022300A3D2A4C2A57BFF7A0879C31205040523D0
:10023300E52314600B14600C240270137B308006DA
:100243007B3180027B327D0A7F01120E218042C204
:1002530004120CC07BFF7A0879E7E4FDFF120BE17F
:100263007BFF7A0879F7E4FD7F01120BE17BFF7ACC
:100273000979078019E4F5227BFF7A0879A47D0BBD
:10028300FF120BE1D2A3D2A47BFF7A0979561205A0
:1002930004E522B40525C3E525940AE52464809486
:1002A300805018E4F5227BFF7A0879A47D0BFF12B6
:1002B3000BE17BFF7A097967120504E525640C4598
:1002C30024701CD200120CC07BFF7A097986E4FDEE
:1002D300FF120BE17BFF7A0979961205048002C2B3
:1002E300002000030204981209E47524008F25C33B
:1002F300E525940AE524648094804013E525640E83
:100303004524600BE525640D45246003020398052D
:1003130022E52224FE602114603514605624037004
:1003230074AE24AF257C037DE8120AC18E288F2981
:100333007BFF7A08797D802CAE24AF257C007D6419
:10034300120AC18E2A8F2B7BFF7A08798B8015AE18
:1003530024AF257C007D0A120AC18E2C8F2D7BFFD2
:100363007A08798EE4FD7F01120BE17BFF7A08792D
:100373007F801985242E85252F7BFF7A087992E4C7
:10038300FD7F01120BE17BFF7A0879978524338582
:100393002534120504E522D39405400302048EE5B7
:1003A30025940BE52464809480500302048EE52495
:1003B300600302048EE52524F2600302048EE5291E
:1003C300252BFFE528352AFEE52D2FFFE52C3EFEE4
:1003D300E52F2FF527E52E3EF526E4F5227BFF7A60
:1003E3000879A4FD7F01120BE17F01120DD1EFB556
:1003F300271DEEB52619120CC07BFF7A0979B1E4EB
:10040300FD7F01120BE1E4F522D201C200807C7F63
:1004130002120DD1EFB5271DEEB52619120CC07BC4
:10042300FF7A0979B1E4FD7F01120BE1E4F522D2F1
:1004330002C20080567F03120DD1EFB5271DEEB522
:100443002619120CC07BFF7A0979B1E4FD7F0112F2
:100453000BE1E4F522D203C2008030E4F522C200AE
:10046300C201C202C2037BFF7A0979C112050412D9
:100473000CC07BFF7A087960E4FDFF120BE17BFF80
:100483007A0979D3E4FD7F01120BE17FE87E031241
:0F0493000D420202E47FE87E03120D4202005484
:080CA300D2A7D2A67F017E005A
:100CAB007C007D0A120AC1EF1FAC0670011E4C605E
:040CBB00030080F3BF
:010CBF002212
:100DC000120CA3C2A7120CA7C2A67F017E00020CC0
:010DD000AB77
:100D8500C2A6C2A7120CA5D2A7120CA7C2A67F01A4
:050D95007E00020CAB22
:0E0DF000C2A7120CA5C2A67F017E00020CABAA
:0C0DFE00120CA3C2A67F017E00020CAB09
:100CF700120CA3A2A7E433FB120CA7C2A6120CA7DF
:080D0700EB60037F01227F0075
:010D0F0022C1
:020D1000AB072F
:100D1200E4FAEB30E705120DFE8003120DF0EB252D
:060D2200E0FB0ABA08EC38
:010D280022A8
:100C6100E4FBFA120CA3A2A7E433FFEA04F8EF08AD
:100C7100800103D8FD4203120CA7C2A60ABA08E3F9
:020C8100AF03BF
:010C8300224E
:100C0F008F30A905120DC07FA0120D10120CF7EF37
:100C1F0070FAAF30120D10120CF7EF70FAAF01121D
:0B0C2F000D10120CF7EF70FA020D859B
:020B7B00A907C8
:100B7D00120DC07FA0120D10120CF7EF70FAAF011D
:100B8D00120D10120CF7EF70FA120DC07FA1120D9D
:100B9D0010120CF7EF70FA120C61AB07120DFE126A
:040BAD000D85AF0300
:010BB1002221
:100D42007C007D8C120AC1E4FDC3ED9FEC9E50072E
:070D52000DBD00010C80F251
:010D59002277
:0E0DE100C2A2C2A0D2A1D2A20000AF80C2A2C4
:010DEF0022E1
:100CC0007F017E00120D42C2A2C2A0C2A1758001A6
:0D0CD000D2A20000C2A27F017E00020D42F0
:070C84007E00120D427F38D3
:100C8B00AB077F017E00120D42C2A2C2A0C2A18B94
:080C9B0080D2A20000C2A222D7
:100D5A00AE07120DE1EF20E7F9D2A0C2A18E80D230
:060D6A00A20000C2A2225B
:100B34007F3C120C847F05120C847F01120C8412FA
:100B44000DE1EF20E7F97F08120C8B120DE1EF2085
:100B5400E7F97F01120C8B120DE1EF20E7F97F0614
:100B6400120C8B120DE1EF20E7F97F0C120C8B12A3
:070B74000DE1EF20E7F9227B
:100CDD00EF7006ED4480FA8004ED44C0FAAF0212C5
:090CED000C8B120DE1EF20E7F978
:010CF60022DB
:0A0E2100A903120CDDAF01020D5A07
:0A0BE1008F318D328B338A34893551
:100BEB00E4F536AB33AA34A935853682758300120A
:100BFB000A94FB600EE5322536FDAF31120E21054E
:030C0B003680E050
:010C0E0022C3
:100DAE00A903120CDDB901047F0D80027F0C120C19
:020DBE008B2286
:100D9A007FBFDFEFEEEDEBE7DEDDDBD7BEBDBBB736
:040DAA007E7D7B7758
:0B0E1600EF1FAC0670011E4C70F622AE
:1009E400E4F530E530900D9A93F59065907003022C
:1009F4000A857F887E13120E16E530936590700386
:100A0400020A85E4F531E531900D9E93FF659070FF
:100A140068EF120AD30A7A770A777B0A747D0A711F
:100A24007E0A6EB70A6BBB0A68BD0A65BE0A62D746
:100A34000A5FDB0A5CDD0A59DE0A56E70A53EB0A51
:100A440050ED0A4DEE00000A7D7F0A227F00227FCE
:100A54000B227F0C227F01227F02227F03227F0D43
:100A6400227F04227F05227F06227F0E227F072217
:100A74007F08227F09227F0F220531E5316410703F
:0F0A8400850530E530C3940450030209E77F1065
:010A93002240
:100D2900E589540F4420F589E4F587758DFD858D96
:090D39008B759850D28ED29922DC
:03000000020E0AE3
:0C0E0A00787FE4F6D8FD758143020003F8
:100A9400BB010CE58229F582E5833AF583E0225017
:100AA40006E92582F8E622BBFE06E92582F8E22261
:0D0AB400E58229F582E5833AF583E493227B
:100AC100EF8DF0A4A8F0CF8CF0A428CE8DF0A42E49
:020AD100FE2203
:100AD300D083D082F8E4937012740193700DA3A3B2
:100AE30093F8740193F5828883E4737402936860C6
:060AF300EFA3A3A380DFC6
:1004A200E53F2433F8E6053F227830300C027833FA
:1004B200E475F001120B24020AF92005EB7F2ED21B
:1004C200058018EF540F2490D43440D4FF30090B28
:1004D200EF24BFB41A0050032461FFE54060021507
:1004E200400543E54370020542300C0D7830E47557
:1004F200F001120B24EF020B12020C3A7403D20C1D
:100502008003E4C20CF53F8B308A318932E4F54036
:10051200F542F543E54060077F201204DD80F57562
:1005220041FFC206C205C207C208C20AC20BC20DFF
:100532001204ABFF700D300C057F001204EEAF43C6
:10054200AE4222B4255FC2D5C2091204ABFF24D049
:10055200B40A00501A75F00A784030D50508B6FF83
:100562000106C6A426F620D5047002D20880D9243A
:10057200CFB41A00EF5004C2E5D2090206EED20649
:1005820080C6D20580C0D20780BCD2D580BAD20A3A
:1005920080B47F201204DD2007077401B5400040BB
:1005A200F11204A2FF1204DD020516D20DD20B8055
:1005B200951204A2FB1204A2FA1204A2F94A4B7089
:1005C2000679BF7A077BFF20072EE540602A7E006E
:1005D2008E82758300120A9460060EEE654170F0F9
:1005E200C2D5EBC0E0EAC0E0E9C0E0EE120735D0C8
:1005F200E0F9D0E0FAD0E0FB120AF9FF60AAEBC002
:10060200E0EAC0E0E9C0E01204DDD0E02401F9D064
:10061200E03400FAD0E0FBE5410460DCD541D9804A
:10062200877BFF7A077931D207809C791080027923
:1006320008C20BC20D8008D2D5790A8004790AC299
:10064200D5E541047002F541E4FAFDFEFF1204A271
:10065200FC7B082006131204A2FD7B1030050A124F
:1006620004A2FE1204A2FF7B20EC3382D592D55065
:1006720013C3E43005069FFFE49EFEE42006039DBB
:10068200FDE49CFCE4CBF8C206EC700CCFCECDCCE2
:10069200E824F8F870F38017C3EF33FFEE33FEED72
:1006A20033FDEC33FCEB33FB994002FB0FD8E9EB53
:1006B200300605F8D0E0C448B206C0E00AEC4D4E60
:1006C2004F78207B0070C2EAB5410040BCC0E01206
:1006D2000737D0F0D0E0200604C4C0E0C4B206C0A0
:1006E200F01204C6D0F0D5F0EB020516120AD305BB
:1006F200B353062D5805844C05804206314F063906
:0F07020044063949059943063F55062346062309
:100711004506234707DF5005882D058C2E05AF2B95
:1007210005902305AD2007C82A054848000005A704
:100731003F3F3F00790AA2D5200814300A09B910B9
:10074100020404B9080104A2D5200B0250010420BF
:1007510007689207B540005034C0E07F2030081987
:100761007F30A207720B720A500F12078EC207C2A6
:100771000BC20AC20D7F30800F300A03E9C0E012BC
:1007810004DD300A03D0E0F9D0E0B540CC300A17DF
:100791007F30B9100C1204DD7F583009077F788053
:1007A10003B908031204DD3007057F2D0204DD7F44
:1007B10020200DF87F2B200BF322920780CF286E8B
:1007C100756C6C2900D2061204A23006F8C20678B4
:1007D1004030D50108F60205482D5043495812040E
:1007E100A22403B405004001E49007DA931204CE79
:0D07F100743A1204CED20875400402062DA1
:100AF900BB010689828A83E0225002E722BBFE02FB
:090B0900E32289828A83E493222D
:100B1200BB010689828A83F0225002F722BBFE01C2
:020B2200F322BC
:100B2400FAE6FB0808E6F925F0F618E6CA3AF622D2
:100C3A00EFB40A07740D120C45740A309811A8997A
:100C4A00B8130CC2983098FDA899C298B811F6301A
:070C5A0099FDC299F59922F2
:00000001FF
