:10103A0020200054656D7065723A0020202D202012
:0D104A002D20200020203A20203A202000F8
:09112A00070D1606181511370512
:04108C007F147E004F
:10109000EF4E6010007D027CC7DCFEDDFCEF1F70B0
:0410A000EF1E80ECD3
:0110A4002229
:0610FA00C2A58F80D2A701
:081100007F027EEFDEFEDFFC42
:0111080022C4
:0A111600C2A61210FAC2A7021100CF
:100FFE00CFCDCFCECCCE12035E7C007D0A12035E27
:04100E00ED2430FF9E
:0A101200D2A61210FAC2A7021100C4
:10101C00AE07EEFB7A0064017004ED148009EB64FA
:0E102C00024A7009ED243F4480FF1211162283
:1010D4007F381211167F0C1211167F061211167F1B
:0410E40001021116DE
:0A112000AC0312101CAF0402101201
:080F3D007BFF7A10793A7F0175
:060F45008B198A1A891BBA
:100F4B0012101CE4FDAB19AA1AA91B8D8275830024
:0C0F5B0012031FFF60061210120D80E947
:010F67002267
:0A0F0C00EF24FFFDEE34FFFC7F0A26
:080F16008E1E8F1F8C208D211F
:100F1E007F017E00E4FBEBC39521E5206480F8742D
:0E0F2E008098500AAC1EAD1F12034C0B80E8D9
:010F3C002292
:0E0EDA00E50DFB3395E0FA751D027D017F01E9
:040EE8008A1B8B1CBA
:100EEC0012101CAA1DEAFF7E00D39400748094801B
:0F0EFC00400D120F0CAC1BAD1C120FFE1A80E63E
:010F0B0022C3
:040DA4008B828A8331
:100DA80012101CC3E58364809480400D7F2B1210C1
:100DB8001285832785822880107F2D121012C3E4A4
:100DC8009582F528E49583F527AA26EAFF7E00D3C5
:100DD800940074809480400D120F0CAC27AD28123B
:050DE8000FFE1A80E679
:010DED0022E3
:040D59008A2B8B2C2A
:100D5D0012101CAA2DEAD39400748094804037EAB7
:100D6D0024FFFDE434FFFC7F107E00120F16AC2B28
:100D7D00AD2CCFCDCFCECCCE12035EEF540FFEC334
:100D8D00940A74809480EE5004243080022437FF3E
:060D9D001210121A80BFC3
:010DA300222D
:040E2E008A308B314A
:100E320012101CAA32EAFF7E00D3940074809480C0
:100E42004026EF24FFFDEE34FFFC7F02120F16ACAA
:100E520030AD31CFCDCFCECCCE12035EEF540124D4
:080E620030FF1210121A80CDBE
:010E6A002265
:10083C00E4FB7590FFC29320970E7F14FE1210906C
:10084C003097FD12108C7B0120960B12108C309679
:10085C00FD12108C7B0520950B12108C3095FD121F
:10086C00108C7B0920940B12108C3094FD12108C80
:10087C007B0D7590FFC29220970B12108C3097FD58
:10088C0012108C7B0220960B12108C3096FD1210DD
:10089C008C7B0620950B12108C3095FD12108C7BE6
:1008AC000A20940B12108C3094FD12108C7B0E7558
:1008BC0090FFC29120970B12108C3097FD12108C68
:1008CC007B0320960B12108C3096FD12108C7B073C
:1008DC0020950B12108C3095FD12108C7B0B2094F4
:1008EC000B12108C3094FD12108C7B0F7590FFC284
:1008FC009020970B12108C3097FD12108C7B0420DB
:10090C00960B12108C3096FD12108C7B0820950BD8
:10091C0012108C3095FD12108C7B0C20940B121045
:0B092C008C3094FD12108C7B10AF0388
:01093700229D
:1010BD005389F0438901758A66758CFCC28DD28C7B
:0710CD00D2A9D2AFC2B92283
:100DEE00E4FB20B10E7F14FE12109030B1FD1210F4
:100DFE008C7B0120B00B12108C30B0FD12108C7B4E
:100E0E000220B20B12108C30B2FD12108C7B03201C
:0F0E1E00B30B12108C30B3FD12108C7B04AF039A
:010E2D0022A2
:1010570075985043878053890F438920758BF475A2
:0B1067008DF4C2ABD28ED2AFD2AC220F
:080003008F993099FDC299228A
:020EA400AD0798
:100EA600E4FBEBC394087480948050237E00748026
:100EB600A803088006CEA2E713CE13D8F8FFEDF5F7
:100EC60082EF558224FF92B4D2B6C2B60B80D3D23B
:030ED600B5C2B5ED
:010ED90022F6
:05113C00C2B6C2B5229D
:100FB800AE05AC07AF06120EA4AF04A807748008EC
:100FC8008002C313D8FCF4F5807F017E00121090D4
:040FD8007580FF22FF
:05114100C2B5C2B62298
:020BDB00A90768
:100BDD00D2B5E4FBEBC394087480948050227E0060
:100BED007401A803088005C333CE33CED8F9FFE9CD
:100BFD00F582EF558224FF92B4D2B6C2B60B80D4E3
:100C0D00E4FBEBC394087480948050227E00740141
:100C1D00A803088005C333CE33CED8F9FFEDF58296
:100C2D00EF558224FF92B4D2B6C2B60B80D4C2B5B2
:010C3D002294
:020C3E00AD0700
:100C4000E4F9430501D2B5FBEBC3940874809480AA
:100C500050227E007401A803088005C333CE33CE32
:100C6000D8F9FFEDF582EF558224FF92B4C2B6D2D7
:100C7000B60B80D4E4FBEBC39408748094805017C7
:100C8000D2B6C2B630B40DA8037401088002C333D3
:0D0C9000D8FC42010B80DFC2B5C2B4AF0139
:010C9D002234
:10093800E4FD7F8E120BDBE50D75F00A1202FDC493
:1009480054F0FFE50D75F00A1202FDAEF0EF2EFD32
:100958007F8C120BDBE50E75F00A1202FDC454F011
:10096800FFE50E75F00A1202FDAEF0EF2EFD7F884E
:10097800120BDBE50F75F00A1202FDC454F0FFE517
:100988000F75F00A1202FDAEF0EF2EFD7F86120BF6
:10099800DBE51075F00A1202FDC454F0FFE510758E
:1009A800F00A1202FDAEF0EF2EFD7F84120BDBE59C
:1009B8001175F00A1202FDC454F0FFE51175F00A32
:1009C8001202FDAEF0EF2EFD7F82120BDBE51275F1
:1009D800F00A1202FDC454F0FFE51275F00A120283
:1009E800FDAEF0EF2EFD7F80120BDBE51375F00AEC
:1009F8001202FDC454F0FFE51375F00A1202FDAEB1
:100A0800F0EF2EFD7F8A120BDB7D807F8E020BDBE1
:100AC2007F8C120C3EEFC4540F75F00AA4FEEF5453
:100AD2000F2EF50D7F88120C3EEFC4540F75F00AED
:100AE200A4FEEF540F2EF50E7F86120C3EEFC45477
:100AF2000F75F00AA4FEEF540F2EF50F7F84120C2F
:100B02003EEFC4540F75F00AA4FEEF540F2EF510F9
:100B12007F82120C3EEFC4540F75F00AA4FEEF540C
:100B22000F2EF5117F80120C3EEFC4540F75F00AA0
:100B3200A4FEEF540F2EF5127F8A120C3EEFC4541E
:0C0B42000F75F00AA4FEEF540F2EF513FF
:010B4E002284
:10107200D2B7C2B77FF7DFFED2B77F20DFFEA2B7BB
:09108200E433FE7FF7DFFEAF0648
:01108B002242
:1010E800C2B77E04DEFEEF24FF92B77E18DEFED282
:0110F800B740
:0110F90022D4
:1010A500C2B77F02DFFED2B77F02DFFEA2B7E4330D
:0710B500FE7F18DFFEAF060D
:0110BC002211
:020FDC00AD075F
:100FDE00E4FCECC39408748094805013A80474014C
:0F0FEE00088002C333D8FC5DFF1210E80C80E3CB
:010FFD0022D1
:100F9200E4FDFCECC394087480948050161210A5F2
:100FA200EF600DA8047401088002C333D8FC420527
:050FB2000C80E0AF051A
:010FB7002217
:0D1109001210727FCC120FDC7F44020FDC4D
:100F68001210727FCC120FDC7FBE120FDC120F92B0
:100F7800AB07120F92EFFEEBFFFDAC06EC1202433B
:0A0F8800E4FBFA79807841020117BA
:100CFE00120AC2120EDAE50EFB3395E0FA751D02EA
:100D0E007D047F01120EE8E50FFB3395E0FA751DA9
:100D1E00027D077F01120EE8E510FB3395E0FA75B0
:100D2E001D027D017F02120EE8E511FB3395E0FAFC
:100D3E00751D027D047F02120EE8E512FB3395E06D
:0B0D4E00FA751D027D077F02020EE80F
:10048F00AF187E00EF6402700B050AE50A75F006DF
:10049F008485F00AEF64034E60030205DA740D25BC
:1004AF000AF806AF0DEF3395E0FED3EF9463EE64D9
:1004BF008094804003E4F50DAF0EEF3395E0FED34B
:1004CF00EF940CEE648094804003750E01AF0EEF35
:1004DF003395E0FEEF64014E6024EF64034E601E1F
:1004EF00EF64054E6018EF64074E6012EF64084E1C
:1004FF00600CEF640A4E6006EF640C4E7014AF0F81
:10050F00EF3395E0FED3EF941FEE64809480407C30
:10051F008077AF0EEF3395E0FEEF64044E6012EF7D
:10052F0064064E600CEF64094E6006EF640B4E706C
:10053F0014AF0FEF3395E0FED3EF941EEE6480946B
:10054F008040498044AF0EEF3395E0FEEF64024EDA
:10055F00703AE50D75F0041202FDAFF0EF3395E040
:10056F004F7014AF0FEF3395E0FED3EF941DEE6491
:10057F0080948040178012AF0FEF3395E0FED3EFDA
:10058F00941CEE648094804003750F01AF10EF331D
:10059F0095E0FED3EF9417EE648094804003E4F56A
:1005AF0010AF11EF3395E0FED3EF943BEE648094E0
:1005BF00804003E4F511AF12EF3395E0FED3EF94D3
:1005CF003BEE648094804003E4F512E51864046008
:1005DF0003020755740D250AF816AF0DEF3395E09A
:1005EF00C3648094805003750D63AF0EEF3395E0B5
:1005FF00FEC3EF9401EE648094805003750E0CAF30
:10060F000EEF3395E0FEEF64014E6024EF64034E6E
:10061F00601EEF64054E6018EF64074E6012EF64C2
:10062F00084E600CEF640A4E6006EF640C4E702D9E
:10063F00AF0FEF3395E0FEC3EF9401EE648094802B
:10064F005003750F1FAF0FEF3395E0FED3EF941FDD
:10065F00EE648094805003020725020722AF0EEF4D
:10066F003395E0FEEF64044E6012EF64064E600CAB
:10067F00EF64094E6006EF640B4E7029AF0FEF3336
:10068F0095E0FEC3EF9401EE648094805003750FE4
:10069F001EAF0FEF3395E0FED3EF941EEE64809400
:1006AF00804073806EAF0EEF3395E0FEEF64024E25
:1006BF007064E50D75F0041202FDAFF0EF3395E0B5
:1006CF004F7029AF0FEF3395E0FEC3EF9401EE6447
:1006DF008094805003750F1DAF0FEF3395E0FED35D
:1006EF00EF941DEE64809480402C8027AF0FEF3382
:1006FF0095E0FEC3EF9401EE648094805003750F74
:10070F001CAF0FEF3395E0FED3EF941CEE64809493
:10071F00804003750F01AF10EF3395E0C3648094F1
:10072F00805003751017AF11EF3395E0C3648094B9
:10073F0080500375113BAF12EF3395E0C364809483
:10074F0080500375123BE50A700DE50C64017007CC
:10075F007D01120F3D8003120EDAE50A6401700D60
:10076F00E50C640170077D04120F3D8011E50EFB4F
:10077F003395E0FA751D027D047F01120EE8E50A3C
:10078F0064027015E50C6401700F7BFF7A10793AE3
:10079F007D077F01120F458011E50FFB3395E0FABE
:1007AF00751D027D077F01120EE8E50A64037015BF
:1007BF00E50C6401700F7BFF7A10793A7D017F029F
:1007CF00120F458011E510FB3395E0FA751D027D80
:1007DF00017F02120EE8E50A64047015E50C64014E
:1007EF00700F7BFF7A10793A7D047F02120F4580DC
:1007FF0011E511FB3395E0FA751D027D047F02129E
:10080F000EE8E50A64057013E50C6401700D7BFFBB
:10081F007A10793A7D077F02020F45E512FB339577
:0D082F00E0FA751D027D077F02120EE8221F
:03000B00020E6B77
:090E6B00C0E0C0D075D000C00742
:100E7400758A18758CFC0509E50970020508C39488
:100E8400F4E50894014012750800750900E50C703A
:090E9400047F0180027F008F0C35
:070E9D00D007D0D0D0E032F5
:100A18001211097FE87E031210907BFF7A10793D4E
:100A28007D0A7F01120F45121109120F688F178E68
:100A3800168D158C14E4FFFEFDFCAB17AA16A9153C
:100A4800A8141201B4501E7B2D7D0B7F02121120B9
:100A5800AF17AE16AD15AC1412022D8F178E168D6A
:100A6800158C1480097B2B7D0B7F02121120AF1788
:100A7800AE16AD15AC1412027CAB07AA06751D02A2
:100A88007D0C7F02120EE87B2E7D0E7F0212112054
:100A98007F007E407D1C7C46AB17AA16A915A814BA
:100AA80012000E12027CE47B107A27F9F81203EF89
:0A0AB800751D027D0F7F02020EE89B
:100C9E001211411210BD7BFF7A1079457D017F0143
:100CAE00120F457BFF7A10794E7D017F02120F45A0
:100CBE0012093812083C8F18EF64017018AF0BFE42
:100CCE00EF7007750B01F50A800BEF64014E70058E
:100CDE00F50B120938E50B7003120CFEE50B6401DF
:100CEE00700312048FE518640570C8120A1880C3C9
:081134001210D4120C9E80FB86
:10000E00EC4D6011E8497017ED33EC3304600DE4EC
:10001E00FCFFFEFD22E933E8330470F80202E81219
:10002E0002B358046009E4CC24815006285009021A
:10003E0002F22840030202EFC0E0EB4A7044B9809E
:10004E0006D0E0FB0202DEEF4E701CBD8008EBFF17
:10005E00EAFEE9FD80EBE98DF0A4FEE5F00200F783
:10006E00E9CDF9EAFEEBFFEF89F0A4FCE5F0CE89CD
:10007E00F0A42EFFE435F0CD89F0A42DFEE435F08A
:10008E008067EF4E7005BD80D780C3EF8BF0A4ACB8
:10009E00F0EE8BF0A42CFCE435F0F8EF8AF0A42CF3
:1000AE00E5F038FCE433CB8DF0A42CFCE5F03BF806
:1000BE00EE8AF0A42CFCE5F038F8E433CF89F0A4F6
:1000CE002CFCE5F038CF3400CE89F0A42FFFE5F0FC
:1000DE003EFEE433C98DF0A42EFEE5F039CD8AF054
:1000EE00A42FFFE5F03EFEE43DFD33D0E0FB5007CC
:1000FE000BBB000F0202F2EC2CFCEF33FFEE33FED3
:06010E00ED33FD0202CA00
:100114000202F2EC5D046005E8590470030202E88F
:100124001202B3580460F6EC4860F2EC7004FDFE71
:10013400FF22C860DB2481C85009C39860025006BE
:100144000202EF9850CAF582E9294B4A7005AB8246
:100154000202DE75F0007C1A7880C3EF9BEE9AED04
:1001640099400DC3EF9BFFEE9AFEED99FDE842F036
:10017400DC23ACF0D0E0FFD0E0FED0E0FDAB822089
:10018400E7101BEB60BAEC2CFCEF33FFEE33FEED13
:1001940033FD0202CAE803F830E705C0F075F00049
:1001A400EF2FFFEE33FEED33FD40B830E7C280AAF7
:1001B40074F8CC6480CCC86480C8F58204604FC3F2
:1001C400EB9FF5F0EA9E42F0E99D42F0E89C45F091
:1001D400603C501DE5825FFFE582D313CB5BCBF41B
:1001E4002B5582FB50280ABA002409B90020088044
:1001F4001DE5825BFBE582D313CF5FCFF4C3132FDE
:100204005582FF50090EBE00050DBD00010CC3EB65
:100214009FF5F0EA9E42F0E99D42F0E89C45F060CB
:0902240007CC4820E701B3EC22ED
:10022D00ED33EC33600A047003BD8004ECB2E7FCDF
:01023D00229E
:10023E0075F020800E75F010800575F0087D007E3B
:10024E00007F003392D530D503120481EC33401079
:10025E00EF33FFEE33FEED33FDEC33FCD5F0ED2244
:0E026E00E5F0247EA2D513CC92E7CDCEFF2280
:10027C00EDD2E7CD33EC3392D524814006E4FFFE7A
:10028C00FDFC22FCE4CFCECDCC24E0501174FF80D9
:10029C00EDC3CC13CCCD13CDCE13CECF13CF047076
:0702AC00F030D5DE020481F1
:1002B300E9D2E7C933E833F892D5EDD2E7CD33EC91
:0702C30033FC5002B2D5220A
:1002CA00EC30E7100FBF000C0EBE00080DBD000495
:1002DA000BEB6014A2D5EB13FCED92E7FD2274FF41
:1002EA00FCFDFEFF22E480F8A2D574FF13FC7D809A
:0302FA00E480EFAE
:03000000020B4FA1
:0C0B4F00787FE4F6D8FD758132020B9629
:1002FD00C2D530F707B2D563F0FF05F030E70CB289
:10030D00D5F4048463F0FF05F080018430D502F448
:02031D000422B8
:10031F00BB010CE58229F582E5833AF583E0225093
:10032F0006E92582F8E622BBFE06E92582F8E222DD
:0D033F00E58229F582E5833AF583E49322F7
:10034C00EF8DF0A4A8F0CF8CF0A428CE8DF0A42EC5
:02035C00FE227F
:10035E00BC000BBE0029EF8DF084FFADF022E4CC83
:10036E00F875F008EF2FFFEE33FEEC33FCEE9DEC4C
:10037E00984005FCEE9DFE0FD5F0E9E4CEFD22ED92
:10038E00F8F5F0EE8420D21CFEADF075F008EF2FDC
:10039E00FFED33FD4007985006D5F0F222C398FDCD
:0503AE000FD5F0EA226A
:1003B30075F008758200EF2FFFEE33FECD33CDCC01
:1003C30033CCC58233C5829BED9AEC99E582984084
:1003D3000CF582EE9BFEED9AFDEC99FC0FD5F0D661
:1003E300E4CEFBE4CDFAE4CCF9A88222B800C1B98B
:1003F3000059BA002DEC8BF084CFCECDFCE5F0CBC9
:10040300F97818EF2FFFEE33FEED33FDEC33FCEB01
:1004130033FB10D703994004EB99FB0FD8E5E4F9BC
:10042300FA227818EF2FFFEE33FEED33FDEC33FCA9
:10043300C933C910D7059BE99A4007EC9BFCE99A9D
:10044300F90FD8E0E4C9FAE4CCFB2275F010EF2FE2
:10045300FFEE33FEED33FDCC33CCC833C810D707E2
:100463009BEC9AE899400AED9BFDEC9AFCE899F81D
:0E0473000FD5F0DAE4CDFBE4CCFAE4C8F922B0
:0E048100C3E49FFFE49EFEE49DFDE49CFC228C
:100B5B00021134E493A3F8E493A34003F68001F26B
:100B6B0008DFF48029E493A3F85407240CC8C3339B
:100B7B00C4540F4420C8834004F456800146F6DF6A
:100B8B00E4800B010204081020408090112AE47EBF
:100B9B00019360BCA3FF543F30E509541FFEE4935F
:100BAB00A360010ECF54C025E060A840B8E493A326
:100BBB00FAE493A3F8E493A3C8C582C8CAC583CA51
:100BCB00F0A3C8C582C8CAC583CADFE9DEE780BE09
:0111330000BB
:00000001FF
