:100E1D00252E3166002564002043757272656E744F
:100E2D002054656D703A2020002054656D703A2075
:100E3D0020202020202020432000204D696E2054AA
:100E4D00656D703A20256420202000204D617820AA
:100E5D0054656D703A20256420202000202020202C
:0A0E6D0020202020202000000000BB
:10100400011300010800010900010E00021100286B
:0A101400020FFFF6040A00000000BE
:100F6D00121039120C578F0D8E0C8D0B8C0A7FC8F9
:100F7D001210677FC812106712107A12109D120E90
:0C0F8D00D0120B50120CFC120F2680F545
:0D101F00C2A18F807F0112102CD2A27F058C
:0D102C00AE071FEE60060000000080F422F9
:10106700AE071FEE600C00007E0C7DA9DDFEDEFCE6
:0210770080EE09
:011079002254
:10109D00438901758CFC758A18D2A9D2AFD28C22E6
:03000B000210AD33
:0D10AD00758CFC758A1805130508050932BD
:100CFC00E513C394C85003020D90E4F5132097102C
:100D0C00050E120E77E50E64037079F50E020ED007
:100D1C00209439E50EB40109E51015107002150F79
:100D2C0022E50E6402705DE512151270021511E5D4
:100D3C001224FFFFE51134FFFEEF65107003EE6522
:100D4C000F70410512E5127002051122209235E553
:100D5C000EB401230510E5107002050FE51224FFF7
:100D6C00FFE51134FFFEEFB5101AEEB50F16E510C6
:100D7C0015107002150F22E50EB402080512E512CB
:050D8C007002051122B8
:0A0B5000E508C394645003020C563C
:100B5A0078237C007D007BFF7A0E79697E007F0610
:100B6A0012061F78297C007D007BFF7A0E796F7E42
:100B7A00007F0412061FE4F508E50E70427FC712D3
:100B8A0010BA120C578F0D8E0C8D0B8C0A7535FF0F
:100B9A0075360E75371DAF0DAE0CAD0BAC0A8F3B1B
:100BAA008E3A8D398C387B007A00792312073DE41E
:100BBA00F52212108C0522E522C3940640F422E5A0
:100BCA000E640170417F801210BA7F3E1210937F2B
:100BDA00C01210BA7F201210937F8B1210BA75358B
:100BEA00FF75360E753722850F388510397B007AE6
:100BFA0000792312073DE4F52212108C0522E52222
:100C0A00C3940440F422E50E640270407F801210FF
:100C1A00BA7F201210937FC01210BA7F3E1210932F
:100C2A007FCB1210BA7535FF75360E7537228511CE
:100C3A00388512397B007A00792312073DE4F522C0
:0C0C4A0012108C0522E522C3940440F433
:010C5600227B
:0A10BA00C2A2C2A012101FC2A2229F
:07108C0074232522F8E6FFA2
:0A109300C2A2D2A012101FC2A222B6
:101039007F381210BA7F0C1210BA7F061210BA7FCD
:09104900011210BA7F800210BAF6
:100ED0007F801210BA7535FF75360E7537257B0089
:100EE0007A00792212073DE4FD74222DF8E6FF1204
:100EF00010930DBD10F37FC01210BA7535FF753613
:100F00000E7537367B007A00792212073DE4FD74B6
:100F1000222DF8E6FF1210930DBD10F37FCD1210B5
:060F2000BA7FDF0210930E
:100E77007F801210BA7535FF75360E753747850FA7
:100E8700388510397B007A00792212073DE4FD741A
:100E9700222DF8E6FF1210930DBD10F37FC012103C
:100EA700BA7535FF75360E7537588511388512397D
:100EB7007B007A00792212073DE4FD74222DF8E6C3
:080EC700FF1210930DBD10F3A2
:010ECF002200
:10105200D2A67F0112102CC2A67F2812102CD2A673
:051062007F0B02102CC1
:100FC000E4FDD2A6FCD2A67F0112102CC2A6EDC36E
:100FD00013FDD2A630A6034305807F0212102C0C0D
:050FE000BC08E2AF05B2
:010FE50022E9
:020FE600AD0755
:100FE800E4FBC2A6ED1392A67F0212102CD2A6ED46
:0C0FF800C313FD0BBB08EB7F0202102CA2
:100C570078317C007D007BFF7A0E79737E007F04FC
:100C670012061F1210527FCC120FE67F44120FE6B6
:100C77007F1412102C1210527FCC120FE67FBE1277
:100C87000FE6120FC07531008F32120FC075330097
:100C97008F34E53454F864F87032E534540745313D
:100CA700FCE532FDE412028AE4FBFA7980783D1212
:100CB7000106A804A905AA06AB07E4FFFEFD7C43CD
:100CC700120011E4FBFA798078BF8015E5345407E8
:100CD7004531FCE532FDE412028AE4FBFA798078BB
:100CE7003D1201068F308E2F8D2E8C2DAF30AE2FFB
:040CF700AD2EAC2D45
:010CFB0022D6
:10107A00759850438920758780758DF3758BF3D2E7
:02108A008E22B4
:100F2600AC0FAD10EC12028AAB0DAA0CA90BA80AE5
:100F360012020C50097599413099FDC29922AC11E3
:100F4600AD12EC12028AAB0DAA0CA90BA80A12026A
:100F56000C600B40097599423099FDC2992275992A
:070F66004F3099FDC29922F2
:10000E000202F8E86480F8E933E83360110460F026
:10001E00ED33EC337009E8FCE9FDEAFEEBFF220458
:10002E0060DED3EB9FEA9EE99DE8C2E78CF0C2F753
:10003E0095F0400CE8CCF8E9CDF9EACEFAEBCFFB1F
:10004E001202C385D0F05804700320D5B3E80470B3
:10005E00075002B2D502030292D5EC0460F7E4CC4D
:10006E00C0E0C398F8603B94186008400DD0E0FBE8
:10007E000202DAE4FBFAC9FC8028E830E406E4C99F
:10008E00FBE4CAFCE830E305E4C9CACBFCE854073C
:10009E006010F8C3E913F9EA13FAEB13FBEC13FC47
:1000AE00D8F130F52FC3E49CFCEF9BFFEE9AFEEDEA
:1000BE0099FDD0E0FBEF4E4D4C701222DB03020295
:1000CE00FFEC2CFCEF33FFEE33FEED33FDED30E7AE
:1000DE00EB0202DAEF2BFFEE3AFEED39FDD0E0FB3C
:1000EE0050130BBB0003020302ED13FDEE13FEEFE4
:0800FE0013FFEC13FC0202DA0F
:10010600EC4D6011E8497017ED33EC3304600DE4F3
:10011600FCFFFEFD22E933E8330470F80202F81210
:1001260002C358046009E4CC248150062850090211
:1001360003022840030202FFC0E0EB4A7044B98084
:1001460006D0E0FB0202EEEF4E701CBD8008EBFF0E
:10015600EAFEE9FD80EBE98DF0A4FEE5F00201EF91
:10016600E9CDF9EAFEEBFFEF89F0A4FCE5F0CE89D4
:10017600F0A42EFFE435F0CD89F0A42DFEE435F091
:100186008067EF4E7005BD80D780C3EF8BF0A4ACBF
:10019600F0EE8BF0A42CFCE435F0F8EF8AF0A42CFA
:1001A600E5F038FCE433CB8DF0A42CFCE5F03BF80D
:1001B600EE8AF0A42CFCE5F038F8E433CF89F0A4FD
:1001C6002CFCE5F038CF3400CE89F0A42FFFE5F003
:1001D6003EFEE433C98DF0A42EFEE5F039CD8AF05B
:1001E600A42FFFE5F03EFEE43DFD33D0E0FB5007D3
:1001F6000BBB000F020302EC2CFCEF33FFEE33FEC9
:06020600ED33FD0202DAF7
:10020C0074F8CC6480CCC86480C8F58204604FC399
:10021C00EB9FF5F0EA9E42F0E99D42F0E89C45F038
:10022C00603C501DE5825FFFE582D313CB5BCBF4C2
:10023C002B5582FB50280ABA002409B900200880EB
:10024C001DE5825BFBE582D313CF5FCFF4C3132F85
:10025C005582FF50090EBE00050DBD00010CC3EB0D
:10026C009FF5F0EA9E42F0E99D42F0E89C45F06073
:09027C0007CC4820E701B3EC2295
:1002850075F020800E75F010800575F0087D007EF4
:10029500007F003392D530D50312069DEC33401014
:1002A500EF33FFEE33FEED33FDEC33FCD5F0ED22FD
:0E02B500E5F0247EA2D513CC92E7CDCEFF2239
:1006E100E5492435F8E605492278323007027835A4
:1006F100E475F0011206AB0206452000EB7F2ED215
:10070100008018EF540F2490D43440D4FF30040BF0
:10071100EF24BFB41A0050032461FFE54A600215BB
:100721004A054DE54D7002054C30070D7832E475F0
:10073100F0011206ABEF02068B020F997403D20788
:100741008003E4C207F5498B328A338934E4F54AE0
:10075100F54CF54DE54A60077F2012071C80F575C1
:100761004BFFC201C200C202C203C205C206C208D7
:100771001206EAFF700D3007057F0012072DAF4DFD
:10078100AE4C22B4255FC2D5C2041206EAFF24D0C2
:10079100B40A00501A75F00A784A30D50508B6FF38
:1007A1000106C6A426F620D5047002D20380D924FE
:1007B100CFB41A00EF5004C2E5D204020A1AD201E2
:1007C10080C6D20080C0D20280BCD2D580BAD20508
:1007D10080B47F2012071C2002077401B54A004033
:1007E100F11206E1FF12071C020755D208D206805A
:1007F100951206E1FB1206E1FA1206E1F94A4B7085
:100801000679117A0B7BFF20022EE54A602A7E00D1
:100811008E8275830012065E60060EEE654B70F0E7
:10082100C2D5EBC0E0EAC0E0E9C0E0EE120A7AD03E
:10083100E0F9D0E0FAD0E0FB120645FF60AAEBC078
:10084100E0EAC0E0E9C0E012071CD0E02401F9D0E1
:10085100E03400FAD0E0FBE54B0460DCD54BD980F5
:1008610087D20280A2120A5D60F7E54B7001041283
:10087100030DA94B600DE54B600914F54B120B04F8
:10088100EF60F3EA30E702F404C3995077EAF42504
:100891004B0430E701E404F54B800D120A5D60C1A1
:1008A100EA054B254B12030DEA7848F630E701E4DF
:1008B100254B04D54B0420050114120A7AE4C0E04B
:1008C100120B047848E6601320E70714F6120704B8
:1008D100802204F6D0E014C0E07F00120704E54B4B
:1008E10060071206FB154B800B3005031206FBD087
:1008F100E0020755D0E00480C5120A5D60A0E54B17
:100901000412030D7848EAF6E54B20050260010464
:050911002404120A7A23
:1009160074FF04C0E0120B04120704E54B20050225
:1009260060031206FBD0E0B54BE87F4512070E7850
:1009360048E67F2B30E7047F2DF404C0E012071C45
:10094600D0E075F00A84C0F0120705D0E012070562
:10095600020755791080027908C206C2088008D2BB
:10096600D5790A8004790AC2D5E54B047002F54BA5
:10097600E4FAFDFEFF1206E1FC7B082001131206D5
:10098600E1FD7B1030000A1206E1FE1206E1FF7B54
:1009960020EC3382D592D55013C3E43000069FFF76
:1009A600E49EFEE42001039DFDE49CFCE4CBF8C23A
:1009B60001EC700CCFCECDCCE824F8F870F380179C
:1009C600C3EF33FFEE33FEED33FDEC33FCEB33FBCD
:1009D600994002FB0FD8E9EB300105F8D0E0C44896
:1009E600B201C0E00AEC4D4E4F78207B0070C2EA9F
:1009F600B54B0040BCC0E0120A7CD0F0D0E020012C
:100A060004C4C0E0C4B201C0F0120705D0F0D5F0AE
:100A1600EB0207551206BB07F25309595807C34C98
:100A260007BF42095D4F09654409654907D843096F
:100A36006B55089C4608FA450866470B315007C7B0
:100A46002D07CB2E07EE2B07CF2307EC200B1A2AF8
:100A5600078748000007E6E54BB4FF03754B06120F
:100A660006E1FC1206E1FD1206E1FE1206E1FF7840
:100A76004102033C790AA2D5200314300509B910B6
:100A8600020404B9080104A2D5200602500104207C
:100A960002689202B54A005034C0E07F2030031944
:100AA6007F30A20272067205500F120AD3C202C22A
:100AB60006C205C2087F30800F300503E9C0E01288
:100AC600071C300503D0E0F9D0E0B54ACC30051755
:100AD6007F30B9100C12071C7F583004077F7880CE
:100AE60003B9080312071C3002057F2D02071C7F7D
:100AF600202008F87F2B2006F322920280CF7F0069
:100B0600B4070050052441F8E6FF22286E756C6C88
:100B16002900D2011206E13001F8C201784A30D527
:100B26000108F60207872D504349581206E12403AF
:100B3600B405004001E4900B2C9312070D743A1291
:0A0B4600070DD203754A0402095995
:1002C300E9D2E7C933E833F892D5EDD2E7CD33EC81
:0702D30033FC5002B2D522FA
:1002DA00EC30E7100FBF000C0EBE00080DBD000485
:1002EA000BEB6014A2D5EB13FCED92E7FD2274FF31
:1002FA00FCFDFEFF22E480F8A2D574FF13FC7D808A
:03030A00E480EF9D
:10030D00F920E72824F950037907E4F42402FB18B7
:10031D00DBFDE624FB5014E9600DE4F618E604F667
:0F032D00B40A08E4F6D9F57401F60A22C2D52203
:10033C00ED33EC3392D5FA602AB4FF33EDC2E77B90
:10034C00FF60067A037961E4227A03796A20D50486
:10035C007A037965224E614E002B494E46002D4999
:10036C004E4600E47A08F608DAFC7B00740722E8B3
:10037C00C0E0ECC0E0EDC0E0EEC0E0EFC0E0EA753C
:10038C00F010A4CAABF075F04DA42BFBE435F0FCD7
:10039C00EA2410FAEB34C5FBEC34D9FCEDC2E7FFD0
:1003AC0075F056A4F42411C5F0F434C58FF0A42ACA
:1003BC00E5F03BE43CF620E71412050FD0E0FFD04B
:1003CC00E0FED0E0FDD0E0FC1204428014F40412F4
:1003DC00050FD0E0FFD0E0FED0E0FDD0E0FC120134
:1003EC0006D0E0F8E6FAEDD2E7CD33EC332482FB0D
:1003FC00E4C3CF33CFCE33CECD33CD33DBF37B075A
:10040C0075F00A846004F6081B0AE5F0F6088FF014
:10041C00740AA4FFACF08EF0740AA42CFEACF0505D
:10042C00010C8DF0740AA42CFDE435F0F608DBDE2B
:03043C0074072220
:10043F00020302EC5D046005E8590470030202F840
:10044F001202C3580460F6EC4860F2EC7004FDFE33
:10045F00FF22C860DB2481C85009C3986002500690
:10046F000202FF9850CAF582E9294B4A7005AB8208
:10047F000202EE75F0007C1A7880C3EF9BEE9AEDC6
:10048F0099400DC3EF9BFFEE9AFEED99FDE842F008
:10049F00DC23ACF0D0E0FFD0E0FED0E0FDAB82205B
:1004AF00E7101BEB60BAEC2CFCEF33FFEE33FEEDE5
:1004BF0033FD0202DAE803F830E705C0F075F0000B
:1004CF00EF2FFFEE33FEED33FD40B830E7C280AAC9
:1004DF003F8000004120000042C80000447A000025
:1004EF00461C400047C35000497424004B189680A7
:1004FF004CBEBC205A0E1BCA6753C21C749DC5AE9E
:10050F00FB60065407601C232312053DEB54386033
:10051F0009120529120538120106ECF8EDF9EEFA69
:10052F00EFCB22EB12053880F1543803241C9004D2
:10053F00DFFE93FC0EEE93FD0EEE930ECE93FF2295
:03000000020D915D
:0C0D9100787FE4F6D8FD75814D020DD886
:10054F00E709F608DFFA8046E709F208DFFA803E8E
:10055F0088828C83E709F0A3DFFA8032E309F6087B
:10056F00DFFA8078E309F208DFFA807088828C83E3
:10057F00E309F0A3DFFA806489828A83E0A3F60897
:10058F00DFFA805889828A83E0A3F208DFFA804C71
:10059F0080D280FA80C680D4806980F28033801048
:1005AF0080A680EA809A80A880DA80E280CA8033B1
:1005BF0089828A83ECFAE493A3C8C582C8CCC58329
:1005CF00CCF0A3C8C582C8CCC583CCDFE9DEE780F9
:1005DF000D89828A83E493A3F608DFF9ECFAA9F078
:1005EF00EDFB2289828A83ECFAE0A3C8C582C8CCCE
:1005FF00C583CCF0A3C8C582C8CCC583CCDFEADEE7
:10060F00E880DB89828A83E493A3F208DFF980CC48
:10061F0088F0EF60010E4E60C388F0ED2402B40441
:10062F000050B9F582EB2402B4040050AF232345E8
:06063F00822390059F7369
:10064500BB010689828A83E0225002E722BBFE02B3
:09065500E32289828A83E49322E6
:10065E00BB010CE58229F582E5833AF583E0225051
:10066E0006E92582F8E622BBFE06E92582F8E2229B
:0D067E00E58229F582E5833AF583E49322B5
:10068B00BB010689828A83F0225002F722BBFE014E
:02069B00F32248
:0E069D00C3E49FFFE49EFEE49DFDE49CFC226E
:1006AB00FAE6FB0808E6F925F0F618E6CA3AF62250
:1006BB00D083D082F8E4937012740193700DA3A3CE
:1006CB0093F8740193F5828883E4737402936860E2
:0606DB00EFA3A3A380DFE2
:100F9900EFB40A07740D120FA4740A309811A899B6
:100FA900B8130CC2983098FDA899C298B811F630B8
:070FB90099FDC299F5992290
:100D9D00020F6DE493A3F8E493A34003F68001F2F0
:100DAD0008DFF48029E493A3F85407240CC8C33357
:100DBD00C4540F4420C8834004F456800146F6DF26
:100DCD00E4800B0102040810204080901004E47EA2
:100DDD00019360BCA3FF543F30E509541FFEE4931B
:100DED00A360010ECF54C025E060A840B8E493A3E2
:100DFD00FAE493A3F8E493A3C8C582C8CAC583CA0D
:100E0D00F0A3C8C582C8CAC583CADFE9DEE780BEC4
:01101E0000D1
:00000001FF
