:10000E0000E010080810E000000F102020100F0074
:10001E00001010F8000000000020203F20200000FB
:10002E000070080808887000003028242221300053
:10003E0000300888884830000018202020110E005B
:10004E000000C02010F8000000070424243F240004
:10005E0000F80888880808000019212020110E00D9
:10006E0000E0108888180000000F112020110E00EB
:10007E0000380808C83808000000003F00000000E3
:10008E000070880808887000001C222121221C00A4
:10009E0000E010080810E0000000312222110F00CD
:1000AE0000000030300000000000000606000000D6
:1000BE00000000000000000000010101010101012B
:1000CE00001C0CFCFC0C1C000000080F0F080000AC
:1000DE000000000000000000000000000000000012
:1000EE000000F0F80C040000000003070C080000EC
:1000FE000000040CF8F000000000080C07030000DC
:10010E004020100CE3222222FE2222222202000094
:10011E000404040407040404FF0404040404040097
:10012E000000000000FF1111111111FF000000006E
:10013E00004020100C0301010121413F000000008E
:10014E00000000FE42424242424242FE00000000D7
:10015E000000003F101010101010103F00000000A3
:10016E0000FC444444FC1090101010FF10101000BE
:10017E0000070404040700000340807F0000000015
:10018E0080402098878280808384983060C04000B1
:10019E0000804020100F000020403F0000000000B3
:1001AE001212D2FE9111C0381000FF00081060002C
:1001BE00040300FF00838040402023100804030046
:1001CE00000000FE42424242424242FE0000000057
:1001DE000000003F101010101010103F0000000023
:1001EE0000808080808080808080808080C08000C1
:1001FE0000000000000000000000000000000000F1
:10020E0000000404040404040404040604000000B2
:10021E0000101010101010101010101010181000E8
:10022E00000484848484848484848484840400000C
:10023E0000202020202020202020202020202000F0
:10024E0000FE020202FE0202FE02020202FE000096
:10025E00007F28242320202021222222227F00001A
:10026E00000282828282FE828282C28202000000AC
:10027E0020202020203F202020203F202030200042
:10028E00101010101091121E94101010101010005B
:10029E00004020100C0301000001020C7830000019
:1002AE00000000BE2A2A2AEA2A2A2A2A3E00000034
:1002BE00004846414949497F494949494941400019
:1002CE000004FF545454FF0400FE222222FE0000BC
:1002DE0042221B02020A336218070222423F00002A
:1002EE000020180888E81F6A880888C8A81C08001B
:1002FE0008040241FF40201001020D18702020005A
:10030E000000FE0222222222FA222222E202020011
:10031E0040300F0040201806010020603F00000012
:10032E00000000000000000000303000000000005F
:10033E000018242418000000000000000000000037
:10034E00C0300808080838000718202020100800C0
:10035E000000000000000000004060707800000007
:10036E000000004060707476777777777700000032
:10037E00000000000000000000000000000000006F
:10038E000000004060707476777777777700000012
:10039E00000000000000000000000000000000004F
:1003AE00000000406070707070707070700000001F
:1003BE0000FC444444FC1090101010FE101010006D
:1003CE0000070404040700000320403F0000000063
:1003DE0000F8020200F092929292F20202FE0000E7
:1003EE00007F00000007040404040720403F0000C3
:1003FE004040CE04008040BE828282BEC04040009B
:10040E0000007F20100040432C10102C43400000B1
:10041E0000202EAAAAAEEABAAAAEAAAA2E200000E0
:10042E004040407F6A6A6A6A6A6A6A7F404040005A
:10043E000000F812909296FA9292921202FE00002A
:10044E0000007F001F00003F00080F20407F0000CB
:10045E0040302CEA282800F80808FE0808F80000AA
:10046E000101017F4121000101017F010101000015
:10047E004040CE04008040BE828282BEC04040001A
:10048E0000007F20100040432C10102C4340000031
:10049E0000002EAAAAAEEABAAAAEAAAA2E000000A0
:1004AE004040407F6A6A6A6A6A6A6A7F40404000DA
:1004BE00000000FE42424242424242FE0000000064
:1004CE000000003F101010101010103F0000000030
:1004DE000004FF545454FF0400FE222222FE0000AA
:1004EE0042221B02020A336218070222423F000018
:1004FE0000FC444444FC1090101010FF101010002B
:10050E0000070404040700000340807F0000000081
:10051E0000F8010600F092929292F20202FE0000A2
:10052E0000FF00000007040404040740807F000061
:10053E0004AE530A57485526BD0D26500D95444618
:10054E00AAB9056A4D09AD4224AEB604AE4A6A4D4B
:10055E00BE0A4D520D25465D52BA0B544E0D6A43DE
:10056E00296D37095B4B749BC10497540A4B485B4A
:10057E0025BC06A55006D4454ADAB802B64D095731
:10058E00422497B704974A664B3E0D4A510EA54634
:10059E0056D4BA05AD4E02B644393738092E4B7CC7
:1005AE0096BF0C95530D4A486DA53B0B554F056AEA
:1005BE00454AADB9025D4D092D422C95B60A954AB4
:1005CE007B4ABD06CA510B5546555ABB04DA4E0A34
:1005DE005B43352BB8052B4C8A953F0E955206AAD8
:1005EE00487AD53C0AB54F04B6454A57390A574D95
:1005FE000526423E93350D954975AABE056A5109E9
:10060E006D4654AEBB04AD4F0A4D434D26B70D2576
:10061E004B8D52BF0B54520B6A47696D3C095B50B0
:10062E00049B454A4BB90A4B4DAB25C206A5540651
:10063E00D4496ADA3D0AB6510937465497BB049736
:10064E004F064B4436A5370EA54A86B2BF05AC53AE
:10065E000AB6475936BC092E500C96454D4AB80D70
:10066E004A4C0DA54125AAB6056A497AADBD025D73
:10067E0052092D475C95BA0A954E0B4A434B553796
:10068E000AD54A955ABF04BA530A5B48652BBC0576
:10069E002B500A9345474AB906AA4C0AD54124DA8B
:1006AE00B604B64A69573D0A4E510D26465E933A38
:1006BE000D534D05AA4336B537096D4BB4AEBF0485
:1006CE00AD530A4D486D25BC0D254F0D52445DAA04
:1006DE00380B5A4C056D4124ADB6049B4A7A4BBE7D
:1006EE000A4B510AA5465B52BA06D24E0ADA423579
:1006FE005B3709374B8497C1049753064B4866A561
:10070E003C0EA54F06B2444AB6380AAE4C092E42EC
:10071E003C97350C96497D4ABD0D4A510DA5455560
:10072E00AABA056A4E0A6D43452EB7052D4B8A951A
:10073E00BF0A95530B4A476B553B0AD54F055A4591
:10074E004A5D380A5B4C052B423A93B606934977BD
:10075E0029BD06AA510AD54654DABA04B64E0A572E
:10076E00434527380D264A8E933E0D52520DAA4709
:10077E0066B53B056D4F04AE454A4EB90A4D4C0D5C
:10078E0015412D92B5001F3B5A7897B5D4F3011140
:10079E000130014E000303060104060205000305A5
:1007AE0000000000E0F8FCFCFCFCF8E0000000009B
:1007BE000010183E3F7F5F9F9F5F7F3F3E181000E7
:1007CE00000000C0702000FF001020C0800000005C
:1007DE00040201000040807F0000000001070200BB
:1007EE0000FC444444FC1090101010FF1010100038
:1007FE0000070404040700000340807F000000008F
:10080E0080402098878280808384983060C040002A
:10081E0000804020100F000020403F00000000002C
:10082E0040302CEB282800F80808FF0808F80000D4
:10083E00010101FF412100010101FF010101000041
:10084E00101091D63098000808F8080808FC080027
:10085E00020100FF0182402018074080403F000047
:10086E0000808080808080808080808080C080003A
:10087E00000000000000000000000000000000006A
:10088E00000004040404040404040406040000002C
:10089E000010101010101010101010101018100062
:1008AE000004848484848484848484848404000086
:1008BE00002020202020202020202020202020006A
:1008CE0000FE020202FE0202FE02020202FE000010
:1008DE00007F28242320202021222222227F000094
:1008EE00000282828282FE828282C2820200000026
:1008FE0020202020203F202020203F2020302000BC
:10090E00101010101091121E9410101010101000D4
:10091E00004020100C0301000001020C7830000092
:10092E0000404040404040FE20202020202020005B
:10093E00000000000000003F4040404040380000F2
:10094E0000000000807C0800007E84000000000093
:10095E0020100806010000000000010618301000EB
:10096E000010101010907F101010F81000000000F2
:10097E00004020100C03000000007F404078200053
:10098E0040404040404040FF4040404040404000DA
:10099E00000000000000007F0000000000000000CA
:1009AE000020180888E81F6A880888C8A81C080054
:1009BE0008040241FF40201001020D187020200093
:1009CE000000FE0222222222FA222222E20202004B
:1009DE0040300F0040201806010020603F0000004C
:1009EE00000000BE2A2A2AEA2A2A2A2A3E000000ED
:1009FE00004846414949497F4949494949414000D2
:100A0E000004FF545454FF0400FE222222FE000074
:100A1E0042221B02020A336218070222423F0000E2
:100A2E00000202C2020202FE828282C28302000021
:100A3E004040407F4040407F40404040406040004A
:100A4E00000020100817A444A4940C040000000019
:100A5E000404020201252448488001010206020016
:100A6E0000FE2222FF4248487F48487FC868400067
:100A7E00403F0282FF0000FF49494949FF01000043
:100A8E0000060909E6F0180808081830780000007A
:100A9E0000000000070F1830202020100800000072
:100AAE0020202020FE2020202020FE20203020008C
:100ABE0000000000FF4040404040FF0000000000EA
:100ACE00221408F44221F817D2929292DF9210006B
:100ADE000442817F0000FF8544241F2444C6440045
:100AEE0008284888681800FC061544847E04000017
:100AFE00100806010214101312121A52827F0200FD
:100B0E0000221408F40320988F88C88808FC080077
:100B1E00084482413F00001F08084F80403F0000FC
:100B2E0040221408F40225A4643F342CA432200081
:100B3E00080442817F0201FF49494949FF01000033
:100B4E0000BE2AAA2929E022AA2A2AAA3F020000C8
:100B5E00407F202409407F202409001F6080E00090
:100B6E000040300E080808FF0808080C0880000036
:100B7E0001010101010101FF01010101010101005A
:100B8E000000F8484848F84F4A2A2B0AA8180000D7
:100B9E0080403F80403C0405057F858181E0000058
:100BAE002010F814131212F21A161210F810000078
:100BBE0000808341211907013F4145594340700090
:100BCE001010101010907F10F0121410D01810008A
:100BDE00008040300C2320103F44424140407800BA
:100BEE0000F010FF10F02018C8090E088828180011
:100BFE002067221F123B00003F44424141407000DB
:100C0E0000000202FA0202020202FF02008000004D
:100C1E00080808080909090909094D89413F010019
:100C2E0000088888898A8CF88C8A89C88C0800000C
:100C3E0008080808080808FF08080808080C080033
:100C4E000000FC84A4A4A4A5FEA4A4A4F4A684007D
:100C5E0040300F808242221A071A222247C04000DB
:100C6E00404044444C7445C644645C464460400075
:100C7E0000040404040404FF040404040604000035
:100C8E0000000404040404FC0402020302800000B9
:100C9E00010141414141417F414141614101010019
:100CAE0000804A32928A86808798A452888080007B
:100CBE00018084444424140F14142466C4010000DB
:100CCE000000FE22222222FE22222222FF02000009
:100CDE0000000702020202FF0202020207000000E9
:100CEE000004040404844424140C040000000000D6
:100CFE0000003846414040404040404040780000AF
:100D0E000404C444444444FC44444444E4460400BF
:100D1E000000FF0010080403020458807F0000004A
:100D2E0000040404040404FC040404040604000087
:100D3E00000000000040807F000000000000000066
:100D4E000000F808080808087F880A0C08C8000088
:100D5E0040300F000000404020131C244380E00070
:100D6E000002F24242424242424242FF0200000070
:100D7E0000003F404040404040404040407800002E
:100D8E000000F888888888FF88888888FC0800001A
:100D9E0000001F08080808FF080808081F000000C8
:100DAE000202F21212FE121212FE1212FA130200B6
:100DBE000000FF444A494848484D4941FF000000A1
:100DCE000000F808088808087F880A0C08C8000088
:100DDE0040300F010101414020131C244380E000EC
:100DEE00080808088848291E88486808080C080062
:100DFE000080905149252311080C122340C0000099
:100E0E0080808282828282E2A2928A8680C0800064
:100E1E00000000000040807F000000000000000085
:100E2E00000002828282FE82828282FF0200000025
:100E3E0040404040407F40404040407F4060400046
:100E4E00100CA4A4A4A4A5E6A4A4A4B4A4140C00F9
:100E5E0000804F4A2A2A0A0F0A2A2A4A4F80000087
:100E6E000000FC040203FA0000FC040404FE04006B
:100E7E000040472422120F0000FF02040807000062
:100E8E000000FE929292929292929A93C2800000E9
:100E9E0040300F0000FF4023040814122060200091
:100EAE0000FE42424242424242424242FF020000A1
:100EBE00003F404040404040404040404040700075
:100ECE0000402018070404FC0404040604800000FB
:100EDE0001010101010101FF0101010101010100F7
:100EEE0080888888888888FF888888888CC8800051
:100EFE0000201008040201FF010204081030100047
:080F0E000059230904110A0631
:0628E500010800010900DA
:10281F00EF1FAA0670011E4A600BE4FDEDC3947D05
:05282F0050EE0D80F7E2
:012834002281
:0C28B90075903FC2B0C2B1D2B2C2B222D0
:0C28C50075903EC2B0C2B1D2B2C2B222C5
:0E289D00EF44B8F590C2B0C2B1D2B2C2B222BE
:0E28AB00EF4440F590C2B0C2B1D2B2C2B22228
:10277300AE05AD07EEC394405008D2B6C2B7AF065C
:102783008008C2B6D2B7EE24C0FF1228ABAF050251
:02279300289D7F
:0B28D1008F90C2B0C2B1D2B2C2B222DE
:07284A003EF583E493F4FF67
:0B2851008F90D2B0C2B1D2B2C2B2224E
:10231400754002754158C454F0240EF582E434002B
:06232400AF82F5428F4379
:10232A0085414430063FE4FCEC2540F540854441B4
:10233A00E4FBAD41AF401227730541EC75F008A4E8
:10234A00FFEB7583002FFFE58335F0FEE5432FF59C
:10235A0082E5423EF583E493FF1228510BBB08D273
:10236A000CBC02C422E4FCEC2540F540854441E45F
:10237A00FBAD41AF401227730541EC75F008A4FF8D
:10238A00EB7583002FFFE58335F0FEE5432FF582D9
:0D239A00E54212284A0BBB08D80CBC02CA51
:0123A7002213
:0724C7003EAF82F5438F4494
:1024CE0085424530063FE4FCEC2541F54185454209
:1024DE00E4FBAD42AF411227730542EC75F010A438
:1024EE00FFEB7583002FFFE58335F0FEE5442FF5F6
:1024FE0082E5433EF583E493FF1228510BBB10D2C5
:10250E000CBC02C422E4FCEC2541F541854542E4B5
:10251E00FBAD42AF411227730542EC75F010A4FFDC
:10252E00EB7583002FFFE58335F0FEE5442FF58232
:0D253E00E54312284A0BBB10D80CBC02CAA2
:01254B00226D
:10279500D2B6D2B7E4FEAF0612289DE4FF1228ABED
:0F27A500E4FDE4FF1228510DBD40F70EBE08E71A
:0127B4002202
:1027EF001228C57FB81228D17F401228D17FC0127E
:0827FF0028D11228B902279528
:0620F9008B2E8A2F8930B6
:1020FF00121A7BC4540FD206754002754150122339
:10210F001AAB2EAA2FA930121A7B540FD206122304
:10211F0014D2067541027542607543017544AE12C3
:10212F0024CE74012530F530E4352FF52FAB2EFA80
:10213F00A930121A7BC4540FD20675400275413074
:10214F0012231AAB2EAA2FA930121A7B540FD206C4
:10215F0075400275413812231AD206754102754235
:10216F004075430175448E1224CE74012530F5302D
:10217F00E4352FF52FAB2EFAA930121A7BC4540F6A
:10218F00D20675400275411012231AAB2EAA2FA941
:10219F0030121A7B540FD206754002754118122364
:1021AF001AD20675410275422075430175446E02BD
:0221BF0024CE2C
:061E48008B2E8A2F893069
:101E4E0074032530F530E4352FF52FFAA930121A28
:101E5E007BC4540FFFD206E4F540754158EF1223B0
:101E6E001AAB2EAA2FA930121A7B540FFFD206E4FA
:101E7E00F540754160EF12231AD206E4F541754222
:101E8E006875430175444E1224CE74012530F53029
:101E9E00E4352FF52FAB2EFAA930121A7BC4540F4E
:101EAE00FFD206E4F540754138EF12231AAB2EAA85
:101EBE002FA930121A7B540FFFD206E4F54075415C
:101ECE0040EF12231AD206E4F541754248754301DC
:101EDE0075442E1224CE74012530F530E4352FF5DD
:101EEE002FAB2EFAA930121A7BC4540FFFD206E480
:101EFE00F540754118EF12231AAB2EAA2FA93012F6
:101F0E001A7B540FFFD206E4F540754120EF1223E1
:101F1E001AD206E4F54175422875430175440E1236
:101F2E0024CED206E4F54075410875420075432E65
:101F3E0012232AD206E4F54075411075420075430E
:041F4E000E02232A32
:10266300AA07D206754106E4F5427543027544AEE6
:102673001224CED206754106754210754302754485
:10268300CE1224CED206754106754220EA540F7548
:10269300F020A424CEF582E5F03401AF82F5438F18
:0426A300440224CEFB
:10285C008B2B8A2C892D121E48AB2BAA2CA92D024E
:02286C0020F951
:061294008B388A39893A0B
:10129A00121A7BFFC4540F753B00F53CEF540F75CF
:1012AA003D00F53EAE3BAF3C7C007D0A121B17E5C4
:1012BA003E2FF540E53D3EF53FFEAF40121B29EFBC
:1012CA0064014E7023AE3FAF40FC7D0A121B29D346
:1012DA00ED9400EC94004010D2067541047542600A
:1012EA0075430975448E805EAE3FAF407C007D0A2F
:1012FA00121B29EF64024E7023AE3FAF40FC7D0AF9
:10130A00121B29D3ED9400EC94004010D2067541CB
:10131A000475426075430A7544AE802AD206754147
:10132A0004754260AE3FAF407C007D0A121B29EF74
:10133A007805C333CE33CED8F9244EF58274083EED
:10134A00AF82F5438F441224CEAE3FAF407C007D7E
:10135A000A121B29ED4C7010D206754104754270B1
:10136A0075430975448E802CD20675410475427006
:10137A00AE3FAF407C007D0A121B29EDAE04780512
:10138A00C333CE33CED8F9244EF58274083EAF82E9
:10139A00F5438F441224CE7401253AF53AE43539DF
:1013AA00F539AB38FAA93A121A7BFFC4540F753BC8
:1013BA0000F53CEF540F753D00F53EAE3BAF3C7C6B
:1013CA00007D0A121B17E53E2FF540E53D3EF53F2D
:1013DA00D20675410475425075430175442E122494
:1013EA00CEE5406401453F7010D20675410475424E
:1013FA004075430A75442E8052E540640B453F70A0
:10140A0010D20675410475424075430A75444E80F0
:10141A003AE540640C453F7010D2067541047542A6
:10142A004075430A75446E8022D20675410475429E
:10143A0040E540AE3F7805C333CE33CED8F9244ECB
:10144A00F58274083EAF82F5438F441224CE7401AC
:10145A00253AF53AE43539F539AB38FAA93A121A88
:10146A007BFFC4540F753B00F53CEF540F753D00EC
:10147A00F53EAE3BAF3C7C007D0A121B17E53E2FC2
:10148A00F540E53D3EF53FD206754104E4F542E5F7
:10149A004024D0FFE53F3407FE121B29EDAE047845
:1014AA0005C333CE33CED8F9244EF582740C1224F8
:1014BA00C7AB38AA39A93A121A7B540F753B00F503
:1014CA003CD206754104754210E54024D0FFE53F41
:1014DA003407FE7C007D0C121B29EDAE047805C38F
:1014EA0033CE33CED8F9248EF582740D1224C7D2A6
:1014FA0006754104754220E54024D0FFE53F3407D4
:10150A00FE7C007D0C121B29EDAE047805C333CE98
:10151A0033CED8F924CEF582740A1224C7D20675BE
:0E152A00410475423075430175440E0224CE13
:061B7E008B2B8A2C892D3F
:101B8400E4F52F900001121A94D3947F402F752FFF
:101B940001121A7BF404121AE3AB2BAA2CA92D12FE
:101BA4001A7BC394FF9000014007121A94F4048036
:101BB40004121A94F4900001121AF58003E4F52F2C
:101BC400AB2BAA2CA92D121A7B540FB41000507100
:101BD400901BDBF8282873021C0B021C10021C1239
:101BE400021C17021C19021C1E021C23021C2502C3
:101BF4001C2A021C2F021C31021C36021C3B021C34
:101C04003D021C42021C42E4F52E80358000752EF4
:101C140001802E8000752E028027752E038022807D
:101C240000752E04801B752E0580168000752E0607
:101C3400800F752E07800A8000752E088003752E8C
:101C440009D2067540067541387542007543CE12B7
:101C5400232AD2067540067541407542007543AE8D
:101C640012232AD2067540067541787542037543DE
:101C74004E12232AD20675400675417075420375CB
:101C8400433E12232AD206754006754168E52E129A
:101C9400231AD20675400675416075420375432EBA
:101CA40012232AAB2BAA2CA92D121A7BC4540FF58C
:101CB4002E7401252DF52DE4352CF52CFAA92D12C1
:101CC4001A7BC454F0422ED206754006754158E57D
:101CD4002E75F00A84E5F012231AE52E75F00A84B5
:101CE400FA7010D20675400675415075420075436E
:101CF400DE8019D206754006754150EAC454F024BA
:101D04000EF582E43400AF82F5428F4312232AE5B4
:101D14002FB40110D206754006754148754200750E
:101D240043BE800ED2067540067541487542007563
:051D340043DE12232A2A
:011D39002287
:06153800AB35AA36A9370D
:06153E008B3D8A3E893F4F
:10154400D200D201D202D203D204D205BF0102C218
:1015540005BF0202C204BF0302C203BF0402C202E7
:10156400BF0502C201BF0602C200D206754102E4F1
:10157400F5427543047544BE1224CED20675410269
:101584007542107543047544DE1224CE7405253F5C
:10159400F53FE4353EF53EAB3DFAA93F121A7BC454
:1015A400540FA200920675400275412812231AAB0B
:1015B4003DAA3EA93F121A7B540FA2009206754021
:1015C4000275413012231AD20675400275413875EE
:1015D40042007543BE12232A74FF253FF53F74FF72
:1015E400353EF53EAB3DFAA93F121A7BC4540FA217
:1015F40001920675400275414012231AAB3DAA3E82
:10160400A93F121A7B540FA201920675400275413C
:101614004812231AD206754002754150754200756E
:1016240043BE12232A74FF253FF53F74FF353EF570
:101634003EAB3DFAA93F121A7BC4540FA202920694
:10164400122314AB3DAA3EA93F121A7B540FA202E7
:10165400920675400275416012231AD20675410440
:10166400E4F5427543047544FE1224CED206754156
:101674000475421075430575441E1224CE74FF256B
:101684003FF53F74FF353EF53EAB3DFAA93F121AD4
:101694007BC4540FA203920675400475412812239B
:1016A4001AAB3DAA3EA93F121A7B540FA20392061D
:1016B40075400475413012231AD2067540047541F1
:1016C400387542007543AE12232A74FF253FF53F57
:1016D40074FF353EF53EAB3DFAA93F121A7BC45464
:1016E4000FA204920675400475414012231AAB3DC3
:1016F400AA3EA93F121A7BA20492067540047541C2
:101704004812231AD206754004754150754200757B
:1017140043AE12232A74FF253FF53F74FF353EF58F
:101724003EAB3DFAA93F121A7BC4540FA2059206A0
:10173400754004122317AB3DAA3EA93F121A7B54ED
:101744000FA2059206754004754160C454F0240E3E
:0E175400F582E43400AF82F5428F4302232A6F
:10226F00D200D201BF0202C200BF0102C201A2000E
:10227F009206E4F541F5427543037544BE1224CE30
:10228F00A2009206E4F5417542107543037544DED2
:10229F001224CEA2009206E4F54175422075430345
:1022AF007544FE1224CEA2009206E4F54175423029
:1022BF0075430475441E1224CEA201920675410285
:1022CF00E4F54275430475443E1224CEA2019206F2
:1022DF0075410275421075430475445E1224CEA2F7
:1022EF0001920675410275422075430475447E12B2
:1022FF0024CEA201920675410275423075430475D2
:05230F00449E0224CEF3
:061D3A008B358A36893763
:101D4000D200D201BF0102C201BF0202C200D2060C
:101D5000E4F541F5427543077544AE1224CED20630
:101D6000E4F5417542107543077544CE1224CED276
:101D700006E4F5417542207543077544EE1224CE02
:101D8000D206E4F5407541307542007543AE12232A
:101D90002AD206E4F54175423875430875440E129F
:101DA00024CED206E4F54175424875430875442EA9
:101DB0001224CEAB35AA36A937900001121A9475B9
:101DC000F00A84A200920675400275412012231A7F
:101DD000AB35AA36A937900001121A9475F00A841F
:101DE000AFF0A2009206754002754128EF12231A47
:101DF000D2067540027541307542007543AE12231C
:101E00002AAB35AA36A937121A7B75F00A84A201CB
:101E1000920675400275413812231AAB35AA36A9CD
:101E200037121A7B75F00A84AFF0A2019206754052
:101E300002754140EFC454F0240EF582E43400AF43
:081E400082F5428F4302232AC0
:0F286E00EF7F08A2E092A3D2A2C2A2C313DFF4AD
:01287D002238
:0F287E007F08C313A2A392E7D2A2C2A2DFF4FF86
:01288D002228
:10283500AE05C2A2C2A4D2A412286EAF0612286E9B
:05284500C2A4D2A22292
:0727B500740129F9E43AFA6E
:1027BC00E4FEC2A2C2A4D2A4EF4401FF12286E12FE
:0627CC00287EC2A4D2A287
:0127D20022E4
:1021C1008B328A338934E4FD7F8E122835AB32AAF3
:1021D10033A934121A7B547F121AE3AB32AA33A902
:1021E10034121A7BFD7F8012283574012534F534B1
:1021F100E43533F533AB32FAA934121A7BFD7F8211
:1022010012283574012534F534E43533F533AB3216
:10221100FAA934121A7BFD7F841228357401253402
:10222100F534E43533F533AB32FAA934121A7BFDB8
:102231007F8612283574012534F534E43533F533BE
:10224100AB32FAA934121A7BFD7F8812283574014A
:102251002534F534E43533F533AB32FAA934121AA7
:0E2261007BFD7F8C1228357D807F8E02283514
:062612007B007A00792133
:102618007F801227BCEF121AE37F821227B5EF12D0
:102628001AE37F841227B5EF121AE3740129F9E43B
:102638003AFA7F861227BCEF121AE3740129F9E4EB
:102648003AFA7F881227BCEF121AE3740129F9E4D9
:0B2658003AFA7F8C1227BCEF021AE355
:07000300AE071FEE70FA22A8
:1027D300E4FC7D08C2A1ECC313FCD2A130A10343E6
:0B27E30004807F14120003DDEBAF0444
:0127EE0022C8
:02280700AD071B
:102809007B08C2A1ED1392A17F14120003D2A1ED9E
:05281900C313FDDBED1F
:01281E002297
:10274E00E4FDD2A17F01120003C2A17F6412000337
:10275E00D2A17F06120003A2A1E433FD7F821200F4
:04276E0003EDF4FF84
:012772002244
:1026A7008B2B8A2C892D12274E7FCC1228077F442B
:1026B70012280712274E7FCC1228077FBE12280741
:1026C7001227D3AB2BAA2CA92DEF121AE31227D36B
:0D26D700AB2BAA2CA92D900001EF021AF5E3
:0625BF00AD32AC31AF2F7C
:0625C5008C388D39AB07D4
:1025CB00EB2403FFE433FEEF7803CEC313CE13D813
:1025DB00F9FFEB2403FDE433ED5407FE7480A806EA
:1025EB00088002C313D8FCFEEF7C002539FDEC35C7
:1025FB0038FC743E2DF58274053CF583E49352064A
:06260B00EE7002C322D3B1
:0126110022A6
:021762008F2BCB
:10176400740329F9E43AFA121A7BFFC4540F75F092
:101774000AA4FEEF540F2EF52E740129F9E43AFA67
:10178400121A7BFFC4540F75F00AA4FEEF540F2EF7
:10179400F52D740129F9E43AFA121A7BFFC4540FA7
:1017A40075F00AA4FEEF540F2EF52CE52B7009E515
:1017B4002C2463FFE4338008E52C24FFFFE434FF8A
:1017C400FE7C007D03121B178E318F32744025324C
:1017D400F58274053531F583E493FF5460C41354E2
:1017E40007FAEF541FF914F530EA64016006741F18
:1017F4002530F530E52DC3940AE52D500E9007925F
:1018040093252EF534E433F533801825E02488F548
:1018140082E43407F583740193252EF534E493347C
:1018240000F533E52DD394024006E52C54036008FB
:10183400E534153470021533AF307E00C3E5349FB0
:10184400E5339E4072E5349FF534E5339EF53375F8
:101854002D01752F011225BF9200C2012000047AC8
:101864001D80027A1E743E2532F58274053531F5E9
:1018740083E49354F0C4540FF9EAFF7E00C3E534C3
:101884009FE5339E402CE5349FF534E5339EF533D4
:10189400052FE52DB50109B201200106052D8002B1
:1018A400052D1225BF92003000047A1E80CB7A1DCC
:1018B40080C7E53402193AC3E5309534F530E52C98
:1018C4007008752CE3752B018002152C74FD2532EC
:1018D400F53274FF3531F531752D0CFE743E253229
:1018E400F58274053EF583E49354F0C4540FF9C2B1
:1018F400017005752F0C8003752F0D1225BF920002
:101904003000047A1E80027A1DE530D39A4023E524
:10191400309AF530152F200102152DE52DB5010261
:10192400B2011225BF92003000047A1E80DB7A1DBA
:1019340080D7C3EA953004F52EE52C75F00A84C4EB
:1019440054F0FAE52C75F00A84E5F04AF537E52DF4
:1019540075F00A84C454F0FAE52D75F00A84E5F0B4
:101964004AF536E52E75F00A84C454F0FAE52E756E
:10197400F00A84E5F04AF5357B007A0079350212E5
:0119840094CE
:1023A8007403252DF52DE4352CF52CAB2BFAA92D2E
:1023B800121A7BFFC4540F75F00AA4FEEF540F2EB7
:1023C800F52E7401252DF52DE4352CF52CFAA92DC3
:1023D800121A7BFFC4540F75F00AA4FEEF540F2E97
:1023E800FF7401252DF52DE4352CF52CFAA92D12B5
:1023F8001A7BFEC4540F75F00AA4FDEE540F2DFE8F
:102408002000032464FEEE1313543F2E75F0078456
:10241800ADF0E52E2DFDEF9007A1932DFDEE5403B1
:102428007007EFC3940350011DED75F00784AFF0FA
:0324380002266316
:0928DC00E580540FFFBF0FF82244
:1026E400E580540F640F60317F047E0012281FE5DB
:1026F40080540F640F6022E580540F24F960142481
:10270400FC600D24FE600614700C7F01227F0222FF
:0C2714007F03227F04227F00227F00222E
:060F16008B328A3389349E
:100F1C008B358A36893774012534F534E43533F54D
:040F2C0033020FCCB1
:100F3000AB32AA33A934121A7BFFC4540F75F00ADE
:100F4000A4FEEF540F2EF5381226E4EF24FE604580
:100F500024FE7003020FD7240370D50538E538B49A
:100F60003C03E4F538E53875F00A84C454F0AB323C
:100F7000AA33A934121AE3AB32AA33A934121A7B6A
:100F8000FFE53875F00A84E5F04F121AE3AB35AA95
:100F900036A9378037E538700375383C1538E538A1
:100FA00075F00A84C454F0AB32AA33A934121AE3A0
:100FB000AB32AA33A934121A7BFFE53875F00A84E4
:100FC000E5F04F121AE3AB35AA36A9377F021215A6
:100FD0003E1228DC020F3074012534F534E4353339
:050FE000F5330210765C
:100FE500AB32AA33A934121A7BFFC4540F75F00A29
:100FF500A4FEEF540F2EF5391226E4EF24FE603CD3
:1010050024FE6078240370D80539E539B41803E463
:10101500F539E53975F00A84C454F0AB32AA33A921
:1010250034121AE3AB32AA33A934121A7BFFE5391D
:1010350075F00A84E5F04F121AE38035E53970033F
:10104500753918D53903753917E53975F00A84C42A
:1010550054F0AB32AA33A934121AE3AB32AA33A93E
:1010650034121A7BFFE53975F00A84E5F04F121A40
:10107500E37F031215381228DC020FE574012534CD
:0A108500F534E43533F53302112091
:10108F00AB32AA33A934121A7BFFC4540F75F00A7E
:10109F00A4FEEF540F2EF53A1226E4EF24FE603C27
:1010AF0024FE6078240370D8053AE53AB42003751E
:1010BF003A01E53A75F00A84C454F0AB32AA33A969
:1010CF0034121AE3AB32AA33A934121A7BFFE53A72
:1010DF0075F00A84E5F04F121AE38035E53A700394
:1010EF00753A1FD53A03753A1FE53A75F00A84C46D
:1010FF0054F0AB32AA33A934121AE3AB32AA33A994
:10110F0034121A7BFFE53A75F00A84E5F04F121A94
:10111F00E37F041215381228DC02108F7401253476
:0A112F00F534E43533F5330211CD39
:10113900AB32AA33A934121A7BFFC4540F75F00AD3
:10114900A4FEEF540F2EF53B1226E4EF24FE603F78
:1011590024FE70030211DE240370D5053BE53BB480
:101169000D03753B01E53B75F00A84C454F0AB32BD
:10117900AA33A934121AE3AB32AA33A934121A7B5F
:10118900FFE53B75F00A84E5F04F121AE38035E577
:101199003B7003753B0CD53B03753B0CE53B75F088
:1011A9000A84C454F0AB32AA33A934121AE3AB321D
:1011B900AA33A934121A7BFFE53B75F00A84E5F0DE
:1011C9004F121AE3AB35AA36A9377F0512153E121D
:1011D90028DC02113974012534F534E43533F5334B
:0311E9000212806F
:1011EC00AB32AA33A934121A7BFFC4540F75F00A20
:1011FC00A4FEEF540F2EF53C1226E4EF24FE603FC4
:10120C0024FE7003021291240370D5053CE53CB416
:10121C006403E4F53CE53C75F00A84C454F0AB324D
:10122C00AA33A934121AE3AB32AA33A934121A7BAB
:10123C00FFE53C75F00A84E5F04F121AE38035E5C2
:10124C003C7003753C64D53C03753C64E53C75F01F
:10125C000A84C454F0AB32AA33A934121AE3AB3269
:10126C00AA33A934121A7BFFE53C75F00A84E5F029
:10127C004F121AE3AB35AA36A9377F0612153E1268
:05128C0028DC0211EC5A
:031291000228DC54
:061F52008B328A33893452
:101F5800804A1226E4EF24FE602714604914604882
:101F6800240370EEAB32AA33A9347401121AC112D9
:101F78001A7BB43C04E4121AE3AB32AA33A93480C6
:101F88001BAB32AA33A934121A7B7005743C121A9F
:101F9800E3AB32AA33A93474FF121AC17F01121DB0
:101FA8003A1228DC80AC807174012534F534E435AC
:101FB80033F533AB32FAE534804E1226E4EF24FED3
:101FC800602A146054146051240370EEAB32AA33B3
:101FD800A9347401121AC1121A7BB41804E4121A33
:101FE800E3AB32E53424FFF9E5338020AB32AA3382
:101FF800A934121A7B70057418121AE3AB32AA338B
:10200800A93474FF121AC1E924FFF9EA34FFFA7FF0
:0F20180002121D3A1228DC80A11227950228DC43
:06254C008B2B8A2C892D67
:1025520075310212279580261226E4EF24FE6018B8
:10256200146025146024240370EE0531E531D39400
:102572000240037531028006D53103753101AF3156
:1025820012226F1228DC80D0802DE531B40217129E
:102592002795AB2BAA2CA92D120F16AB2BAA2CA96F
:1025A2002D1221C18011E531B401AD122795AB2E58
:0D25B200AA2FA930121F521227950228DC13
:03000B00022720A9
:04272000C0E0C0D085
:10272400750800C28C758C3C758AB0D28C0508E59E
:1027340008B41407B2A07508000509E509B4060534
:05274400750900C28CC4
:05274900D0D0D0E03209
:0E288E00EFC4540F75F00AA4FEEF540F2EFF96
:01289C002219
:1020270078217C007D007BFF7A0F790E7E007F068A
:10203700121A5578277C007D007BFF7A0F79147E72
:10204700007F02121A551227EF1226127A00792101
:102057001221C1D2AFD2A9D2AD75890175CB3C751A
:10206700CAB01226E4EF602924FE600C14600B143A
:10207700600D240370EC800280001228DC80E37579
:102087002E00752F007530277B007A0079211225E5
:102097004C1226127A00792112285C7B007A00798B
:1020A700291226A77B007A007929121B7E7B007AEA
:1020B700007921E4FF121762C200752B00752C000E
:1020C700752D211223A8E521B45909E522B4590435
:1020D700C2A0D2CAAF2212288EEF65277084AF2321
:1020E70012288EEF65286003022069C2A0D2CA02B7
:0220F70020695E
:0300000002243B9C
:0C243B00787FE4F6D8FD7581450224820C
:10198500E709F608DFFA8046E709F208DFFA803E44
:1019950088828C83E709F0A3DFFA8032E309F60831
:1019A500DFFA8078E309F208DFFA807088828C8399
:1019B500E309F0A3DFFA806489828A83E0A3F6084D
:1019C500DFFA805889828A83E0A3F208DFFA804C27
:1019D50080D280FA80C680D4806980F280338010FE
:1019E50080A680EA809A80A880DA80E280CA803367
:1019F50089828A83ECFAE493A3C8C582C8CCC583DF
:101A0500CCF0A3C8C582C8CCC583CCDFE9DEE780AE
:101A15000D89828A83E493A3F608DFF9ECFAA9F02D
:101A2500EDFB2289828A83ECFAE0A3C8C582C8CC83
:101A3500C583CCF0A3C8C582C8CCC583CCDFEADE9C
:101A4500E880DB89828A83E493A3F208DFF980CCFE
:101A550088F0EF60010E4E60C388F0ED2402B404F7
:101A65000050B9F582EB2402B4040050AF2323459E
:061A750082239019D573D5
:101A7B00BB010689828A83E0225002E722BBFE0269
:091A8B00E32289828A83E493229C
:101A9400BB010CE58229F582E5833AF583E0225007
:101AA40006E92582F8E622BBFE06E92582F8E22251
:0D1AB400E58229F582E5833AF583E493226B
:101AC100BB010989828A83F8E028F022500327F7B5
:101AD10022BBFE05F8E328F3228A838982F8E49386
:021AE1002822B9
:101AE300BB010689828A83F0225002F722BBFE01E2
:021AF300F322DC
:101AF500F8BB010DE58229F582E5833AF583E8F027
:101B0500225006E92582C8F622BBFE05E92582C8D2
:021B1500F222BA
:101B1700EF8DF0A4A8F0CF8CF0A428CE8DF0A42EE2
:021B2700FE229C
:101B2900BC000BBE0029EF8DF084FFADF022E4CCA0
:101B3900F875F008EF2FFFEE33FEEC33FCEE9DEC69
:101B4900984005FCEE9DFE0FD5F0E9E4CEFD22EDAF
:101B5900F8F5F0EE8420D21CFEADF075F008EF2FF9
:101B6900FFED33FD4007985006D5F0F222C398FDEA
:051B79000FD5F0EA2287
:10244700022027E493A3F8E493A34003F68001F264
:1024570008DFF48029E493A3F85407240CC8C33396
:10246700C4540F4420C8834004F456800146F6DF65
:10247700E4800B01020408102040809028E5E47EE8
:10248700019360BCA3FF543F30E509541FFEE4935A
:10249700A360010ECF54C025E060A840B8E493A321
:1024A700FAE493A3F8E493A3C8C582C8CAC583CA4C
:1024B700F0A3C8C582C8CAC583CADFE9DEE780BE04
:0128EB0000EC
:00000001FF
