:06000300010800010900E4
:0B00F7001200E112000E1200B280FBAC
:10000E00438901758CFC758A18D2A9D2AFD28C2285
:03000B00020102ED
:09010200758CFC758A18050832A1
:1000E100759850438920758780758DF3758BF3D290
:0600F100ACD2AFD28E225A
:0300230002010BCC
:06010B00859909C298323B
:1000B200E508C394C84027E4F508E509B44109D22C
:1000C20096C297D290B29322E509B44209C296D25F
:0F00D20097B290D29322C296C297D290D2932225
:03000000020026D5
:0C002600787FE4F6D8FD75810902006DBA
:100032000200F7E493A3F8E493A34003F68001F2ED
:1000420008DFF48029E493A3F85407240CC8C333CF
:10005200C4540F4420C8834004F456800146F6DF9E
:10006200E4800B0102040810204080900003E47E2B
:10007200019360BCA3FF543F30E509541FFEE49393
:10008200A360010ECF54C025E060A840B8E493A35A
:10009200FAE493A3F8E493A3C8C582C8CAC583CA85
:1000A200F0A3C8C582C8CAC583CADFE9DEE780BE3D
:0100090000F6
:00000001FF
