:0700BC000508222020135764
:10008F00E4FF74082FF8E6540F2430FEEF25E02428
:10009F000DF8A60674082FF8E6C4540F2430FEEFAF
:0D00AF0025E0240EF8A6060FBF05D780FE41
:03000000020003F8
:0C000300787FE4F6D8FD75811602004AF3
:10000F0002008FE493A3F8E493A34003F68001F278
:10001F0008DFF48029E493A3F85407240CC8C333F2
:10002F00C4540F4420C8834004F456800146F6DFC1
:10003F00E4800B01020408102040809000BCE47E95
:10004F00019360BCA3FF543F30E509541FFEE493B6
:10005F00A360010ECF54C025E060A840B8E493A37D
:10006F00FAE493A3F8E493A3C8C582C8CAC583CAA8
:10007F00F0A3C8C582C8CAC583CADFE9DEE780BE60
:0100C300003C
:00000001FF
