:10000E0000E010080810E000000F102020100F0074
:10001E00001010F8000000000020203F20200000FB
:10002E000070080808887000003028242221300053
:10003E0000300888884830000018202020110E005B
:10004E000000C02010F8000000070424243F240004
:10005E0000F80888880808000019212020110E00D9
:10006E0000E0108888180000000F112020110E00EB
:10007E0000380808C83808000000003F00000000E3
:10008E000070880808887000001C222121221C00A4
:10009E0000E010080810E0000000312222110F00CD
:1000AE0000000030300000000000000606000000D6
:1000BE00000000000000000000010101010101012B
:1000CE00001C0CFCFC0C1C000000080F0F080000AC
:1000DE000000000000000000000000000000000012
:1000EE000000F0F80C040000000003070C080000EC
:1000FE000000040CF8F000000000080C07030000DC
:10010E004020100CE3222222FE2222222202000094
:10011E000404040407040404FF0404040404040097
:10012E000000000000FF1111111111FF000000006E
:10013E00004020100C0301010121413F000000008E
:10014E00000000FE42424242424242FE00000000D7
:10015E000000003F101010101010103F00000000A3
:10016E0000FC444444FC1090101010FF10101000BE
:10017E0000070404040700000340807F0000000015
:10018E0080402098878280808384983060C04000B1
:10019E0000804020100F000020403F0000000000B3
:1001AE001212D2FE9111C0381000FF00081060002C
:1001BE00040300FF00838040402023100804030046
:1001CE00000000FE42424242424242FE0000000057
:1001DE000000003F101010101010103F0000000023
:1001EE0000808080808080808080808080C08000C1
:1001FE0000000000000000000000000000000000F1
:10020E0000000404040404040404040604000000B2
:10021E0000101010101010101010101010181000E8
:10022E00000484848484848484848484840400000C
:10023E0000202020202020202020202020202000F0
:10024E0000FE020202FE0202FE02020202FE000096
:10025E00007F28242320202021222222227F00001A
:10026E00000282828282FE828282C28202000000AC
:10027E0020202020203F202020203F202030200042
:10028E00101010101091121E94101010101010005B
:10029E00004020100C0301000001020C7830000019
:1002AE00000000BE2A2A2AEA2A2A2A2A3E00000034
:1002BE00004846414949497F494949494941400019
:1002CE000004FF545454FF0400FE222222FE0000BC
:1002DE0042221B02020A336218070222423F00002A
:1002EE000020180888E81F6A880888C8A81C08001B
:1002FE0008040241FF40201001020D18702020005A
:10030E000000FE0222222222FA222222E202020011
:10031E0040300F0040201806010020603F00000012
:10032E00000000000000000000303000000000005F
:10033E000018242418000000000000000000000037
:10034E00C0300808080838000718202020100800C0
:10035E000000000000000000004060707800000007
:10036E000000004060707476777777777700000032
:10037E00000000000000000000000000000000006F
:10038E000000004060707476777777777700000012
:10039E00000000000000000000000000000000004F
:1003AE00000000406070707070707070700000001F
:1003BE0000FC444444FC1090101010FE101010006D
:1003CE0000070404040700000320403F0000000063
:1003DE0000F8020200F092929292F20202FE0000E7
:1003EE00007F00000007040404040720403F0000C3
:1003FE004040CE04008040BE828282BEC04040009B
:10040E0000007F20100040432C10102C43400000B1
:10041E0000202EAAAAAEEABAAAAEAAAA2E200000E0
:10042E004040407F6A6A6A6A6A6A6A7F404040005A
:10043E000000F812909296FA9292921202FE00002A
:10044E0000007F001F00003F00080F20407F0000CB
:10045E0040302CEA282800F80808FE0808F80000AA
:10046E000101017F4121000101017F010101000015
:10047E004040CE04008040BE828282BEC04040001A
:10048E0000007F20100040432C10102C4340000031
:10049E0000002EAAAAAEEABAAAAEAAAA2E000000A0
:1004AE004040407F6A6A6A6A6A6A6A7F40404000DA
:1004BE00000000FE42424242424242FE0000000064
:1004CE000000003F101010101010103F0000000030
:1004DE000004FF545454FF0400FE222222FE0000AA
:1004EE0042221B02020A336218070222423F000018
:1004FE0000FC444444FC1090101010FF101010002B
:10050E0000070404040700000340807F0000000081
:10051E0000F8010600F092929292F20202FE0000A2
:10052E0000FF00000007040404040740807F000061
:10053E0004AE530A57485526BD0D26500D95444618
:10054E00AAB9056A4D09AD4224AEB604AE4A6A4D4B
:10055E00BE0A4D520D25465D52BA0B544E0D6A43DE
:10056E00296D37095B4B749BC10497540A4B485B4A
:10057E0025BC06A55006D4454ADAB802B64D095731
:10058E00422497B704974A664B3E0D4A510EA54634
:10059E0056D4BA05AD4E02B644393738092E4B7CC7
:1005AE0096BF0C95530D4A486DA53B0B554F056AEA
:1005BE00454AADB9025D4D092D422C95B60A954AB4
:1005CE007B4ABD06CA510B5546555ABB04DA4E0A34
:1005DE005B43352BB8052B4C8A953F0E955206AAD8
:1005EE00487AD53C0AB54F04B6454A57390A574D95
:1005FE000526423E93350D954975AABE056A5109E9
:10060E006D4654AEBB04AD4F0A4D434D26B70D2576
:10061E004B8D52BF0B54520B6A47696D3C095B50B0
:10062E00049B454A4BB90A4B4DAB25C206A5540651
:10063E00D4496ADA3D0AB6510937465497BB049736
:10064E004F064B4436A5370EA54A86B2BF05AC53AE
:10065E000AB6475936BC092E500C96454D4AB80D70
:10066E004A4C0DA54125AAB6056A497AADBD025D73
:10067E0052092D475C95BA0A954E0B4A434B553796
:10068E000AD54A955ABF04BA530A5B48652BBC0576
:10069E002B500A9345474AB906AA4C0AD54124DA8B
:1006AE00B604B64A69573D0A4E510D26465E933A38
:1006BE000D534D05AA4336B537096D4BB4AEBF0485
:1006CE00AD530A4D486D25BC0D254F0D52445DAA04
:1006DE00380B5A4C056D4124ADB6049B4A7A4BBE7D
:1006EE000A4B510AA5465B52BA06D24E0ADA423579
:1006FE005B3709374B8497C1049753064B4866A561
:10070E003C0EA54F06B2444AB6380AAE4C092E42EC
:10071E003C97350C96497D4ABD0D4A510DA5455560
:10072E00AABA056A4E0A6D43452EB7052D4B8A951A
:10073E00BF0A95530B4A476B553B0AD54F055A4591
:10074E004A5D380A5B4C052B423A93B606934977BD
:10075E0029BD06AA510AD54654DABA04B64E0A572E
:10076E00434527380D264A8E933E0D52520DAA4709
:10077E0066B53B056D4F04AE454A4EB90A4D4C0D5C
:10078E0015412D92B5001F3B5A7897B5D4F3011140
:10079E000130014E000303060104060205000305A5
:1007AE0000000000E0F8FCFCFCFCF8E0000000009B
:1007BE000010183E3F7F5F9F9F5F7F3F3E181000E7
:1007CE00000000C0702000FF001020C0800000005C
:1007DE00040201000040807F0000000001070200BB
:1007EE0000FC444444FC1090101010FF1010100038
:1007FE0000070404040700000340807F000000008F
:10080E0080402098878280808384983060C040002A
:10081E0000804020100F000020403F00000000002C
:10082E0040302CEB282800F80808FF0808F80000D4
:10083E00010101FF412100010101FF010101000041
:10084E00101091D63098000808F8080808FC080027
:10085E00020100FF0182402018074080403F000047
:10086E0000808080808080808080808080C080003A
:10087E00000000000000000000000000000000006A
:10088E00000004040404040404040406040000002C
:10089E000010101010101010101010101018100062
:1008AE000004848484848484848484848404000086
:1008BE00002020202020202020202020202020006A
:1008CE0000FE020202FE0202FE02020202FE000010
:1008DE00007F28242320202021222222227F000094
:1008EE00000282828282FE828282C2820200000026
:1008FE0020202020203F202020203F2020302000BC
:10090E00101010101091121E9410101010101000D4
:10091E00004020100C0301000001020C7830000092
:10092E0000404040404040FE20202020202020005B
:10093E00000000000000003F4040404040380000F2
:10094E0000000000807C0800007E84000000000093
:10095E0020100806010000000000010618301000EB
:10096E000010101010907F101010F81000000000F2
:10097E00004020100C03000000007F404078200053
:10098E0040404040404040FF4040404040404000DA
:10099E00000000000000007F0000000000000000CA
:1009AE000020180888E81F6A880888C8A81C080054
:1009BE0008040241FF40201001020D187020200093
:1009CE000000FE0222222222FA222222E20202004B
:1009DE0040300F0040201806010020603F0000004C
:1009EE00000000BE2A2A2AEA2A2A2A2A3E000000ED
:1009FE00004846414949497F4949494949414000D2
:100A0E000004FF545454FF0400FE222222FE000074
:100A1E0042221B02020A336218070222423F0000E2
:100A2E00000202C2020202FE828282C28302000021
:100A3E004040407F4040407F40404040406040004A
:100A4E00000020100817A444A4940C040000000019
:100A5E000404020201252448488001010206020016
:100A6E0000FE2222FF4248487F48487FC868400067
:100A7E00403F0282FF0000FF49494949FF01000043
:100A8E0000060909E6F0180808081830780000007A
:100A9E0000000000070F1830202020100800000072
:100AAE0020202020FE2020202020FE20203020008C
:100ABE0000000000FF4040404040FF0000000000EA
:100ACE00221408F44221F817D2929292DF9210006B
:100ADE000442817F0000FF8544241F2444C6440045
:100AEE0008284888681800FC061544847E04000017
:100AFE00100806010214101312121A52827F0200FD
:100B0E0000221408F40320988F88C88808FC080077
:100B1E00084482413F00001F08084F80403F0000FC
:100B2E0040221408F40225A4643F342CA432200081
:100B3E00080442817F0201FF49494949FF01000033
:100B4E0000BE2AAA2929E022AA2A2AAA3F020000C8
:100B5E00407F202409407F202409001F6080E00090
:100B6E000040300E080808FF0808080C0880000036
:100B7E0001010101010101FF01010101010101005A
:100B8E000000F8484848F84F4A2A2B0AA8180000D7
:100B9E0080403F80403C0405057F858181E0000058
:100BAE002010F814131212F21A161210F810000078
:100BBE0000808341211907013F4145594340700090
:100BCE001010101010907F10F0121410D01810008A
:100BDE00008040300C2320103F44424140407800BA
:100BEE0000F010FF10F02018C8090E088828180011
:100BFE002067221F123B00003F44424141407000DB
:100C0E0000000202FA0202020202FF02008000004D
:100C1E00080808080909090909094D89413F010019
:100C2E0000088888898A8CF88C8A89C88C0800000C
:100C3E0008080808080808FF08080808080C080033
:100C4E000000FC84A4A4A4A5FEA4A4A4F4A684007D
:100C5E0040300F808242221A071A222247C04000DB
:100C6E00404044444C7445C644645C464460400075
:100C7E0000040404040404FF040404040604000035
:100C8E0000000404040404FC0402020302800000B9
:100C9E00010141414141417F414141614101010019
:100CAE0000804A32928A86808798A452888080007B
:100CBE00018084444424140F14142466C4010000DB
:100CCE000000FE22222222FE22222222FF02000009
:100CDE0000000702020202FF0202020207000000E9
:100CEE000004040404844424140C040000000000D6
:100CFE0000003846414040404040404040780000AF
:100D0E000404C444444444FC44444444E4460400BF
:100D1E000000FF0010080403020458807F0000004A
:100D2E0000040404040404FC040404040604000087
:100D3E00000000000040807F000000000000000066
:100D4E000000F808080808087F880A0C08C8000088
:100D5E0040300F000000404020131C244380E00070
:100D6E000002F24242424242424242FF0200000070
:100D7E0000003F404040404040404040407800002E
:100D8E000000F888888888FF88888888FC0800001A
:100D9E0000001F08080808FF080808081F000000C8
:100DAE000202F21212FE121212FE1212FA130200B6
:100DBE000000FF444A494848484D4941FF000000A1
:100DCE000000F808088808087F880A0C08C8000088
:100DDE0040300F010101414020131C244380E000EC
:100DEE00080808088848291E88486808080C080062
:100DFE000080905149252311080C122340C0000099
:100E0E0080808282828282E2A2928A8680C0800064
:100E1E00000000000040807F000000000000000085
:100E2E00000002828282FE82828282FF0200000025
:100E3E0040404040407F40404040407F4060400046
:100E4E00100CA4A4A4A4A5E6A4A4A4B4A4140C00F9
:100E5E0000804F4A2A2A0A0F0A2A2A4A4F80000087
:100E6E000000FC040203FA0000FC040404FE04006B
:100E7E000040472422120F0000FF02040807000062
:100E8E000000FE929292929292929A93C2800000E9
:100E9E0040300F0000FF4023040814122060200091
:100EAE0000FE42424242424242424242FF020000A1
:100EBE00003F404040404040404040404040700075
:100ECE0000402018070404FC0404040604800000FB
:100EDE0001010101010101FF0101010101010100F7
:100EEE0080888888888888FF888888888CC8800051
:100EFE0000201008040201FF010204081030100047
:080F0E000059230904110A0631
:0629C500010800010900F9
:1028E900EF1FAA0670011E4A600FE4FDEDC3947D37
:0928F9007480948050EA0D80F314
:0129020022B2
:0C29990075903FC2B0C2B1D2B2C2B222EF
:0C29A50075903EC2B0C2B1D2B2C2B222E4
:0E297D00EF44B8F590C2B0C2B1D2B2C2B222DD
:0E298B00EF4440F590C2B0C2B1D2B2C2B22247
:10281C00AE05AD07EEC39440748094805008D2B6D8
:10282C00C2B7AF068008C2B6D2B7EE24C0FF1229D9
:06283C008BAF0502297DAF
:0B29B1008F90C2B0C2B1D2B2C2B222FD
:07294A003EF583E493F4FF66
:0B2951008F90D2B0C2B1D2B2C2B2224D
:10220000754002754158C454F0240EF582E4340040
:06221000AF82F5428F438E
:10221600854144300653E4FCECC3940274809480F8
:1022260040030222B9EC2540F540854441E4FBEB2E
:10223600C3940874809480502DAD41AF4012281C81
:102246000541EC75F008A4FFEB7583002FFFE583CD
:1022560035F0FEE5432FF582E5423EF583E493FF34
:102266001229510B80C90C80AFE4FCECC3940274B4
:10227600809480503EEC2540F540854441E4FBEBDC
:10228600C39408748094805027AD41AF4012281C37
:102296000541EC75F008A4FFEB7583002FFFE5837D
:1022A60035F0FEE5432FF582E54212294A0B80CF31
:0322B6000C80B8E1
:0122B9002202
:072415003EAF82F5438F4446
:10241C00854245300653E4FCECC3940274809480EE
:10242C0040030224BFEC2541F541854542E4FBEB1A
:10243C00C3941074809480502DAD42AF4112281C6F
:10244C000542EC75F010A4FFEB7583002FFFE583BC
:10245C0035F0FEE5442FF582E5433EF583E493FF2A
:10246C001229510B80C90C80AFE4FCECC3940274AC
:10247C00809480503EEC2541F541854542E4FBEBD0
:10248C00C39410748094805027AD42AF4112281C25
:10249C000542EC75F010A4FFEB7583002FFFE5836C
:1024AC0035F0FEE5442FF582E54312294A0B80CF27
:0324BC000C80B8D9
:0124BF0022FA
:1027C000D2B6D2B7E4FEEEC3940874809480502150
:1027D000AF0612297DE4FF12298BE4FDEDC394407E
:1027E000748094805008E4FF1229510D80EE0E8011
:0127F000D513
:0127F10022C5
:10291D001229A57FB81229B17F401229B17FC012AB
:08292D0029B11229990227C00B
:062138008B2E8A2F893076
:10213E00121AA5C4540FD2067540027541501222D0
:10214E0006AB2EAA2FA930121AA5540FD2061222B0
:10215E0000D2067541027542607543017544AE1298
:10216E00241C74012530F530E4352FF52FAB2EFAF3
:10217E00A930121AA5C4540FD2067540027541300B
:10218E00122206AB2EAA2FA930121AA5540FD20670
:10219E00754002754138122206D20675410275420B
:1021AE004075430175448E12241C74012530F530A0
:1021BE00E4352FF52FAB2EFAA930121AA5C4540F01
:1021CE00D206754002754110122206AB2EAA2FA917
:1021DE0030121AA5540FD2067540027541181222FC
:1021EE0006D20675410275422075430175446E0292
:0221FE00241C9F
:061E83008B2E8A2F89302E
:101E890074032530F530E4352FF52FFAA930121AED
:101E9900A5C4540FFFD206E4F540754158EF12224C
:101EA90006AB2EAA2FA930121AA5540FFFD206E4A9
:101EB900F540754160EF122206D206E4F5417542FC
:101EC9006875430175444E12241C74012530F530A0
:101ED900E4352FF52FAB2EFAA930121AA5C4540FE9
:101EE900FFD206E4F540754138EF122206AB2EAA5F
:101EF9002FA930121AA5540FFFD206E4F5407541F7
:101F090040EF122206D206E4F541754248754301B5
:101F190075442E12241C74012530F530E4352FF553
:101F29002FAB2EFAA930121AA5C4540FFFD206E41A
:101F3900F540754118EF122206AB2EAA2FA93012CF
:101F49001AA5540FFFD206E4F540754120EF12227D
:101F590006D206E4F54175422875430175440E120F
:101F6900241CD206E4F54075410875420075432EDC
:101F7900122216D206E4F5407541107542007543E8
:041F89000E0222160C
:10270300AA07D206754106E4F5427543027544AE45
:1027130012241CD206754106754210754302754496
:10272300CE12241CD206754106754220EA540F7559
:10273300F020A424CEF582E5F03401AF82F5438F77
:042743004402241C0C
:10295C008B2B8A2C892D121E83AB2BAA2CA92D0212
:02296C00213810
:0612A2008B388A39893AFD
:1012A800121AA5FFC4540F753B00F53CEF540F7597
:1012B8003D00F53EAE3BAF3C7C007D0A121B41E58C
:1012C8003E2FF540E53D3EF53FFEAF40121B53EF84
:1012D80064014E7023AE3FAF40FC7D0A121B53D30E
:1012E800ED9400EC94004010D206754104754260FC
:1012F80075430975448E805EAE3FAF407C007D0A21
:10130800121B53EF64024E7023AE3FAF40FC7D0AC0
:10131800121B53D3ED9400EC94004010D206754193
:101328000475426075430A7544AE802AD206754139
:1013380004754260AE3FAF407C007D0A121B53EF3C
:101348007805C333CE33CED8F9244EF58274083EDF
:10135800AF82F5438F4412241CAE3FAF407C007D22
:101368000A121B53ED4C7010D20675410475427079
:1013780075430975448E802CD206754104754270F8
:10138800AE3FAF407C007D0A121B53AE04ED7805DA
:10139800C333CE33CED8F9244EF58274083EAF82DB
:1013A800F5438F4412241C7401253AF53AE4353983
:1013B800F539AB38FAA93A121AA5FFC4540F753B90
:1013C80000F53CEF540F753D00F53EAE3BAF3C7C5D
:1013D800007D0A121B41E53E2FF540E53D3EF53FF5
:1013E800D20675410475425075430175442E122486
:1013F8001CE5406401453F7010D2067541047542F2
:101408004075430A75442E8052E540640B453F7091
:1014180010D20675410475424075430A75444E80E2
:101428003AE540640C453F7010D206754104754298
:101438004075430A75446E8022D206754104754290
:1014480040AE3FE5407805C333CE33CED8F9244EBD
:10145800F58274083EAF82F5438F4412241C740150
:10146800253AF53AE43539F539AB38FAA93A121A7A
:10147800A5FFC4540F753B00F53CEF540F753D00B4
:10148800F53EAE3BAF3C7C007D0A121B41E53E2F8A
:10149800F540E53D3EF53FD206754104E4F542E5E9
:1014A8004024D0FFE53F3407FE121B53AE04ED780D
:1014B80005C333CE33CED8F9244EF582740C1224EA
:1014C80015AB38AA39A93A121AA5540F753B00F57D
:1014D8003CD206754104754210E54024D0FFE53F33
:1014E8003407FE7C007D0C121B53AE04ED7805C357
:1014F80033CE33CED8F9248EF582740D122415D24A
:1015080006754104754220E54024D0FFE53F3407C5
:10151800FE7C007D0C121B53AE04ED7805C333CE60
:1015280033CED8F924CEF582740A122415D2067562
:0E153800410475423075430175440E02241CB7
:061BA8008B2B8A2C892D15
:101BAE00E4F52F900001121ABED3947F74809480B6
:101BBE004033752F01121AA5F404121B0DAB2BAA7C
:101BCE002CA92D121AA5C394FF7480948090000145
:101BDE004007121ABEF4048004121ABEF4900001DB
:101BEE00121B1F8003E4F52FAB2BAA2CA92D121A62
:101BFE00A5540FB410005071901C0DF828287302D4
:101C0E001C3D021C42021C44021C49021C4B021CBD
:101C1E0050021C55021C57021C5C021C61021C6304
:101C2E00021C68021C6D021C6F021C74021C74E400
:101C3E00F52E80358000752E01802E8000752E02C7
:101C4E008027752E0380228000752E04801B752E32
:101C5E000580168000752E06800F752E07800A806F
:101C6E0000752E088003752E09D206754006754143
:101C7E00387542007543CE122216D206754006758F
:101C8E0041407542007543AE122216D206754006CB
:101C9E0075417875420375434E122216D206754071
:101CAE000675417075420375433E122216D20675B3
:101CBE004006754168E52E122206D206754006755D
:101CCE00416075420375432E122216AB2BAA2CA926
:101CDE002D121AA5C4540FF52E7401252DF52DE4E1
:101CEE00352CF52CFAA92D121AA5C454F0422ED279
:101CFE0006754006754158E52E75F00A84E5F0121A
:101D0E002206E52E75F00A84FA7010D2067540068A
:101D1E007541507542007543DE8019D20675400636
:101D2E00754150EAC454F0240EF582E43400AF82BB
:101D3E00F5428F43122216E52F64017010D20675FC
:101D4E0040067541487542007543BE800ED2067539
:0E1D5E0040067541487542007543DE1222169C
:011D6C002254
:06154600AB35AA36A937FF
:06154C008B3D8A3E893F41
:10155200D200D201D202D203D204D205EFFD7C0026
:1015620064017002C205ED64024C7002C204ED64B3
:10157200034C7002C203ED64044C7002C202ED64BB
:10158200054C7002C201ED64064C7002C200D20624
:10159200754102E4F5427543047544BE12241CD21F
:1015A200067541027542107543047544DE12241C0F
:1015B2007405253FF53FE4353EF53EAB3DFAA93FC4
:1015C200121AA5C4540FA200920675400275412852
:1015D200122206AB3DAA3EA93F121AA5540FA20041
:1015E2009206754002754130122206D206754002FB
:1015F2007541387542007543BE12221674FF253FAD
:10160200F53F74FF353EF53EAB3DFAA93F121AA5F0
:10161200C4540FA20192067540027541401222067F
:10162200AB3DAA3EA93F121AA5540FA2019206751C
:101632004002754148122206D20675400275415099
:101642007542007543BE12221674FF253FF53F74A2
:10165200FF353EF53EAB3DFAA93F121AA5C4540F21
:10166200A2029206122200AB3DAA3EA93F121AA57F
:10167200540FA2029206754002754160122206D2F0
:1016820006754104E4F5427543047544FE12241CB8
:10169200D20675410475421075430575441E122425
:1016A2001C74FF253FF53F74FF353EF53EAB3DFA16
:1016B200A93F121AA5C4540FA203920675400475DD
:1016C2004128122206AB3DAA3EA93F121AA5540F89
:1016D200A2039206754004754130122206D20675A5
:1016E20040047541387542007543AE12221674FFEC
:1016F200253FF53F74FF353EF53EAB3DFAA93F125B
:101702001AA5C4540FA204920675400475414012F2
:101712002206AB3DAA3EA93F121AA5A20492067563
:101722004004754148122206D206754004754150A4
:101732007542007543AE12221674FF253FF53F74C1
:10174200FF353EF53EAB3DFAA93F121AA5C4540F30
:10175200A2059206754004122203AB3DAA3EA93FA0
:10176200121AA5540FA2059206754004754160C471
:1017720054F0240EF582E43400AF82F5428F430226
:0217820022162D
:10236800D200D201EFFD7C0064027002C200ED646D
:10237800014C7002C201A2009206E4F541F54275D3
:1023880043037544BE12241CA2009206E4F541756D
:1023980042107543037544DE12241CA2009206E421
:1023A800F5417542207543037544FE12241CA200B2
:1023B8009206E4F54175423075430475441E1224B3
:1023C8001CA2019206754102E4F542754304754466
:1023D8003E12241CA20192067541027542107543F3
:1023E8000475445E12241CA20192067541027542CE
:1023F8002075430475447E12241CA201920675417F
:0D2408000275423075430475449E02241C89
:061D6D008B358A36893730
:101D7300D200D201EFFD7C0064017002C201ED6468
:101D8300024C7002C200D206E4F541F542754307E6
:101D93007544AE12241CD206E4F541754210754316
:101DA300077544CE12241CD206E4F5417542207512
:101DB30043077544EE12241CD206E4F54075413006
:101DC3007542007543AE122216D206E4F541754200
:101DD3003875430875440E12241CD206E4F5417588
:101DE300424875430875442E12241CAB35AA36A904
:101DF30037900001121ABE75F00A84A2009206758C
:101E03004002754120122206AB35AA36A93790004D
:101E130001121ABE75F00A84AFF0A2009206754053
:101E230002754128EF122206D20675400275413031
:101E33007542007543AE122216AB35AA36A9371286
:101E43001AA575F00A84A2019206754002754138FD
:101E5300122206AB35AA36A937121AA575F00A84E1
:101E6300AFF0A2019206754002754140EFC454F0F1
:101E7300240EF582E43400AF82F5428F430222162A
:1028CE00EF7F08EFD3940074809480400DA2E092C5
:0A28DE00A3D2A2C2A2C3131F80E917
:0128E80022CD
:102903007F08EFD3940074809480400C13A2A392A9
:09291300E7D2A2C2A21F80EAFF74
:01291C002298
:10293500AE05C2A2C2A4D2A41228CEAF061228CEDA
:05294500C2A4D2A22291
:0728B000740129F9E43AFA72
:1028B700E4FEC2A2C2A4D2A4EF4401FF1228CE12A2
:0628C7002903C2A4D2A205
:0128CD0022E8
:1022BA008B328A338934E4FD7F8E122935AB32AAF8
:1022CA0033A934121AA5547F121B0DAB32AA33A9B3
:1022DA0034121AA5FD7F8012293574012534F5348C
:1022EA00E43533F533AB32FAA934121AA5FD7F82ED
:1022FA0012293574012534F534E43533F533AB321C
:10230A00FAA934121AA5FD7F8412293574012534DD
:10231A00F534E43533F533AB32FAA934121AA5FD94
:10232A007F8612293574012534F534E43533F533C3
:10233A00AB32FAA934121AA5FD7F88122935740125
:10234A002534F534E43533F533AB32FAA934121AAD
:0E235A00A5FD7F8C1229357D807F8E022935EE
:062662007B007A007921E3
:102668007F801228B7EF121B0D7F821228B0EF125D
:102678001B0D7F841228B0EF121B0D740129F9E499
:102688003AFA7F861228B7EF121B0D740129F9E474
:102698003AFA7F881228B7EF121B0D740129F9E462
:0B26A8003AFA7F8C1228B7EF021B0DDE
:07000300AE071FEE70FA22A8
:10284200E4FC7D08EDD39400748094804015C2A10D
:10285200EC13FCD2A130A1034304807F14120003C5
:052862001D80E1AF0440
:01286700224E
:02288D00AD0795
:10288F007B08EBD39400748094804014C2A1ED13A5
:10289F0092A17F14120003D2A1EDC313FD1B80E29E
:0128AF002206
:10286800E4FDD2A17F01120003C2A17F641200031C
:10287800D2A17F06120003A2A1E433FD7F821200D9
:0428880003EDF4FF69
:01288C002229
:102747008B2B8A2C892D1228687FCC12288D7F44E9
:1027570012288D1228687FCC12288D7FBE12288DF3
:10276700122842AB2BAA2CA92DEF121B0D122842BF
:0D277700AB2BAA2CA92D900001EF021B1F17
:0626B300AD32AC31AF2F87
:0626B9008C388D39AB07DF
:1026BF00EB2403FFE433FEEF7803CEC313CE13D81E
:1026CF00F9FFEB24035407FEF87480088002C3134C
:1026DF00D8FCFEEF7C002539FDEC3538FC743E2D1F
:1026EF00F58274053CF583E4935206AF06EF700252
:0326FF00C322D320
:0127020022B4
:021784008F2BA9
:10178600740329F9E43AFA121AA5FFC4540F75F046
:101796000AA4FEEF540F2EF52E740129F9E43AFA45
:1017A600121AA5FFC4540F75F00AA4FEEF540F2EAB
:1017B600F52D740129F9E43AFA121AA5FFC4540F5B
:1017C60075F00AA4FEEF540F2EF52CE52B7009E5F3
:1017D6002C2463FFE4338008E52C24FFFFE434FF68
:1017E600FE7C007D03121B418E318F327440253200
:1017F600F58274053531F583E493FF5460C41354C0
:1018060007FAEF541FF914F530EA64016006741FF5
:101816002530F530C3E52D940A74809480E52D506B
:101826000E90079293252EF534E433F53380182570
:10183600E02488F582E43407F583740193252EF5B8
:1018460034E4933400F533D3E52D94027480948008
:101856004006E52C54036008E53415347002153350
:10186600AF307E00C3E5349FE5339E4072E5349F7A
:10187600F534E5339EF533752D01752F011226B328
:101886009200C2012000047A1D80027A1E743E2551
:1018960032F58274053531F583E49354F0C4540F60
:1018A600F9EAFF7E00C3E5349FE5339E402CE5341C
:1018B6009FF534E5339EF533052FE52DB50109B2C5
:1018C60001200106052D8002052D1226B392003057
:1018D60000047A1E80CB7A1D80C7E534021964C3E2
:1018E600E5309534F530E52C7008752CE3752B0141
:1018F6008002152C74FD2532F53274FF3531F53131
:10190600752D0CFE743E2532F58274053EF583E492
:101916009354F0C4540FF9C2017005752F0C80035F
:10192600752F0D1226B392003000047A1E80027ABB
:101936001DE530D39A4023E5309AF530152F200166
:1019460002152DE52DB50102B2011226B392003023
:1019560000047A1E80DB7A1D80D7C3EA953004F531
:101966002EE52C75F00A84C454F0FAE52C75F00ABD
:1019760084E5F04AF537E52D75F00A84C454F0FA8B
:10198600E52D75F00A84E5F04AF536E52E75F00A80
:1019960084C454F0FAE52E75F00A84E5F04AF5356C
:0919A6007B007A0079350212A2DF
:1024C0007403252DF52DE4352CF52CAB2BFAA92D15
:1024D000121AA5FFC4540F75F00AA4FEEF540F2E74
:1024E000F52F7401252DF52DE4352CF52CFAA92DA9
:1024F000121AA5FFC4540F75F00AA4FEEF540F2E54
:10250000F52E7401252DF52DE4352CF52CFAA92D89
:10251000121AA5FFC4540F75F00AA4FEEF540F2E33
:10252000FF2000032464FFEF1313543F2F75F007BF
:1025300084AEF0E52F2EFEE52E9007A1932EFEEF40
:102540005403700CE52EC394037480948050011ED4
:0A255000EE75F00784AFF0022703D8
:0929BC00E580540F640F70F8224D
:10278400E580540F640F60317F047E001228E9E570
:1027940080540F640F6022E580540F24F9601424E0
:1027A400FC600D24FE600614700C7F01227F02225F
:0C27B4007F03227F04227F00227F00228E
:060F16008B328A3389349E
:100F1C008B358A36893774012534F534E43533F54D
:040F2C0033020FCCB1
:100F3000AB32AA33A934121AA5FFC4540F75F00AB4
:100F4000A4FEEF540F2EF538122784EF24FE6045DF
:100F500024FE7003020FD7240370D50538E53864EA
:100F60003C7002F538E53875F00A84C454F0AB32B1
:100F7000AA33A934121B0DAB32AA33A934121AA515
:100F8000FFE53875F00A84E5F04F121B0DAB35AA6A
:100F900036A9378037E538700375383C1538E538A1
:100FA00075F00A84C454F0AB32AA33A934121B0D75
:100FB000AB32AA33A934121AA5FFE53875F00A84BA
:100FC000E5F04F121B0DAB35AA36A9377F0212157B
:100FD0004C1229BC020F3074012534F534E435334A
:050FE000F53302107959
:100FE500AB32AA33A934121AA5FFC4540F75F00AFF
:100FF500A4FEEF540F2EF539122784EF24FE603C32
:1010050024FE607B240370D80539E5396418700225
:10101500F539E53975F00A84C454F0AB32AA33A921
:1010250034121B0DAB32AA33A934121AA5FFE539C8
:1010350075F00A84E5F04F121B0D8038E539700311
:101045007539181539E5397003753917E53975F0AE
:101055000A84C454F0AB32AA33A934121B0DAB3247
:10106500AA33A934121AA5FFE53975F00A84E5F00B
:101075004F121B0D7F031215461229BC020FE57492
:0D108500012534F534E43533F5330211272D
:10109200AB32AA33A934121AA5FFC4540F75F00A51
:1010A200A4FEEF540F2EF53A122784EF24FE603D82
:1010B20024FE607C240370D8053AE53A642070036C
:1010C200753A01E53A75F00A84C454F0AB32AA339A
:1010D200A934121B0DAB32AA33A934121AA5FFE5AB
:1010E2003A75F00A84E5F04F121B0D8038E53A702C
:1010F20003753A1F153AE53A7003753A1FE53A75DA
:10110200F00A84C454F0AB32AA33A934121B0DABDB
:1011120032AA33A934121AA5FFE53A75F00A84E51A
:10112200F04F121B0D7F041215461229BC021092B9
:0E11320074012534F534E43533F5330211D859
:10114000AB32AA33A934121AA5FFC4540F75F00AA2
:10115000A4FEEF540F2EF53B122784EF24FE6040CF
:1011600024FE70030211E9240370D5053BE53B64BE
:101170000D7003753B01E53B75F00A84C454F0AB78
:1011800032AA33A934121B0DAB32AA33A934121A76
:10119000A5FFE53B75F00A84E5F04F121B0D803882
:1011A000E53B7003753B0C153BE53B7003753B0C51
:1011B000E53B75F00A84C454F0AB32AA33A934126B
:1011C0001B0DAB32AA33A934121AA5FFE53B75F00B
:1011D0000A84E5F04F121B0DAB35AA36A9377F05FF
:1011E00012154C1229BC02114074012534F534E467
:0711F0003533F53302128EC6
:1011F700AB32AA33A934121AA5FFC4540F75F00AEB
:10120700A4FEEF540F2EF53C122784EF24FE603F17
:1012170024FE700302129F240370D5053CE53C644D
:10122700647002F53CE53C75F00A84C454F0AB32B7
:10123700AA33A934121B0DAB32AA33A934121AA54B
:10124700FFE53C75F00A84E5F04F121B0D8038E589
:101257003C7003753C64153CE53C7003753C64E5E4
:101267003C75F00A84C454F0AB32AA33A934121B7C
:101277000DAB32AA33A934121AA5FFE53C75F00A63
:1012870084E5F04F121B0DAB35AA36A9377F06123E
:08129700154C1229BC0211F7ED
:03129F000229BC65
:061F8D008B328A33893417
:101F9300804A122784EF24FE6027146049146048A6
:101FA300240370EEAB32AA33A9347401121AEB1274
:101FB3001AA5643C7003121B0DAB32AA33A93480FB
:101FC3001BAB32AA33A934121AA57005743C121B39
:101FD3000DAB32AA33A93474FF121AEB7F01121D21
:101FE3006D1229BC80AC807374012534F534E4355B
:101FF30033F533AB32FAE534804E122784EF24FEF7
:10200300602A146054146053240370EEAB32AA3375
:10201300A9347401121AEB121AA564187003121B67
:102023000DAB32E53424FFF9E5338020AB32AA331C
:10203300A934121AA570057418121B0DAB32AA33FA
:10204300A93474FF121AEBE924FFF9EA34FFFA7F8B
:1020530002121D6D1229BC80A180001227C0022923
:01206300BCC0
:0625E6008B2B8A2C892DCD
:1025EC007531021227C0802D122784EF24FE601C47
:1025FC0014602C14602B240370EE0531D3E5319458
:10260C000274809480400375310280091531E531E4
:10261C007003753101AF311223681229BC80C98057
:10262C002FE531640270171227C0AB2BAA2CA92DF1
:10263C00120F16AB2BAA2CA92D1222BA8012E5313F
:10264C00640170A41227C0AB2EAA2FA930121F8DC3
:06265C001227C00229BC98
:03000B000227F2D7
:0227F200C0E045
:1027F400750800C28C758C3C758AB0D28C0508E5CE
:102804000864147006B2A0F5080509E509640670A9
:0528140004F509C28C6F
:03281900D0E032DA
:0E296E00EFC4540F75F00AA4FEEF540F2EFFB5
:01297C002238
:1020640078217C007D007BFF7A0F790E7E007F064D
:10207400121A7F78277C007D007BFF7A0F79147E0B
:10208400007F02121A7F12291D1226627A0079211A
:102094001222BAD2AFD2A9D2AD75890175CB3C75E3
:1020A400CAB0122784EF602924FE600C14600B145C
:1020B400600D240370EC800280001229BC80E3755B
:1020C4002E00752F007530277B007A0079211225A8
:1020D400E61226627A00792112295C7B007A007963
:1020E400291227477B007A007929121BA87B007AE2
:1020F400007921E4FF121784C200752B00752C00AF
:10210400752D211224C0E5216459700AE522645911
:102114007004C2A0D2CAAF2212296EEF6527708262
:10212400AF2312296EEF652860030220A6C2A0D255
:04213400CA0220A615
:0300000002255A7C
:0C255A00787FE4F6D8FD7581450225A1CC
:1019AF00E709F608DFFA8046E709F208DFFA803E1A
:1019BF0088828C83E709F0A3DFFA8032E309F60807
:1019CF00DFFA8078E309F208DFFA807088828C836F
:1019DF00E309F0A3DFFA806489828A83E0A3F60823
:1019EF00DFFA805889828A83E0A3F208DFFA804CFD
:1019FF0080D280FA80C680D4806980F280338010D4
:101A0F0080A680EA809A80A880DA80E280CA80333C
:101A1F0089828A83ECFAE493A3C8C582C8CCC583B4
:101A2F00CCF0A3C8C582C8CCC583CCDFE9DEE78084
:101A3F000D89828A83E493A3F608DFF9ECFAA9F003
:101A4F00EDFB2289828A83ECFAE0A3C8C582C8CC59
:101A5F00C583CCF0A3C8C582C8CCC583CCDFEADE72
:101A6F00E880DB89828A83E493A3F208DFF980CCD4
:101A7F0088F0EF60010E4E60C388F0ED2402B404CD
:101A8F000050B9F582EB2402B4040050AF23234574
:061A9F0082239019FF7381
:101AA500BB010689828A83E0225002E722BBFE023F
:091AB500E32289828A83E4932272
:101ABE00BB010CE58229F582E5833AF583E02250DD
:101ACE0006E92582F8E622BBFE06E92582F8E22227
:0D1ADE00E58229F582E5833AF583E4932241
:101AEB00BB010989828A83F8E028F022500327F78B
:101AFB0022BBFE05F8E328F3228A838982F8E4935C
:021B0B0028228E
:101B0D00BB010689828A83F0225002F722BBFE01B7
:021B1D00F322B1
:101B1F00F8BB010DE58229F582E5833AF583E8F0FC
:101B2F00225006E92582C8F622BBFE05E92582C8A8
:021B3F00F22290
:101B4100EF8DF0A4A8F0CF8CF0A428CE8DF0A42EB8
:021B5100FE2272
:101B5300BC000BBE0029EF8DF084FFADF022E4CC76
:101B6300F875F008EF2FFFEE33FEEC33FCEE9DEC3F
:101B7300984005FCEE9DFE0FD5F0E9E4CEFD22ED85
:101B8300F8F5F0EE8420D21CFEADF075F008EF2FCF
:101B9300FFED33FD4007985006D5F0F222C398FDC0
:051BA3000FD5F0EA225D
:10256600022064E493A3F8E493A34003F68001F207
:1025760008DFF48029E493A3F85407240CC8C33376
:10258600C4540F4420C8834004F456800146F6DF45
:10259600E4800B01020408102040809029C5E47EE7
:1025A600019360BCA3FF543F30E509541FFEE4933A
:1025B600A360010ECF54C025E060A840B8E493A301
:1025C600FAE493A3F8E493A3C8C582C8CAC583CA2C
:1025D600F0A3C8C582C8CAC583CADFE9DEE780BEE4
:0129CB00000B
:00000001FF
