:03000000020300F8
:0C030000787FE4F6D8FD75810D020347FC
:10000300027D023801FA01DD01A9017B0151013FA3
:10001300011C00FD00EF00D500BD00A9009F008E6C
:10002300007E0077006A005F00540807080708098C
:100033000B09080807080708090807040807080741
:1000430008090B090808090807080808080708072A
:1000530008090B090808090807050509080708071F
:100063000908070807040908070807070708090715
:100073000C0B0C0C070D0C0D0D0D0C0D0D090E0FBB
:100083000E0D0C0B0C0B0C0C0B0C0B0C0B08080BB8
:10009300090909070809070C0B0C0C070D0C0D0DBA
:1000A3000D0C0C0C090E0F0E0D0C0B0C1010100B7D
:1000B3000C1010100B0C0C0C0C0E0F10131212134F
:1000C30012121312120F1010131212131212131210
:1000D300120F100F0E0C0C0E0E0F0E0C0C0E101038
:1000E30011100F100F0E0F101312121312121312FE
:1000F300121010131212131212131212100F0E0CED
:100103000C100F0E0C0C0E0E0E0E0C100F0E0C0C12
:10011300100F0F0E0C0C0E0E0E0E0E00D8003C002E
:10012300D8003C0090009C00BA004E004800D80064
:100133003C00D8003C0048004E0048003C00C00092
:10014300D8003C00D8003C0090009C00BA004E0050
:100153004800D8004E0090003C00480120012000D8
:10016300D8003C00D8003C0090009C00BA004E0030
:100173004800D8004E0090003C003600D8004E00E6
:1001830048003C004800F0004E0048003C00480096
:10019300B40030004E0048003C004800F000F0007E
:1001A300780090009C007800D2005D0069013B005C
:1001B3003C00F00069007801E000F000690078017C
:1001C30068004E007E008D007E007800D200BA00E9
:1001D300D2005D00690069005D0069005D00D20026
:1001E3005D00480090005D004E0138013800780042
:1001F30090009C007800D2005D0069013B003C0048
:10020300F00069007801E000F000690069013B003B
:100213004E007E008D007E007800D200BA00D2002E
:100223009F009F013E00BA00D2009F009F013E0045
:100233005D006901A401A401A400FC011A013E00B0
:10024300D200BD017A00D200BD017A00D200BD0107
:100253007A008D009F013E00D200BD017A00D200DA
:10026300BD017A00D200BD017A008D009F011A0002
:100273007E006900D2007E007E008D007E00D200E9
:1002830069017A027C009F00A8009F008D009F01F6
:10029300A700FC011A013E00D200BD017A00D20082
:1002A300BD017A00D200BD017A013E013E00D200B9
:1002B300BD017A00D200BD017A00D200BD00BD01AC
:1002C300DD011A007E0069006901DD008D007E00FA
:1002D300D20069017A01F801F801F8006901DD0132
:1002E3001A007E00690069013E008D008D00FC004C
:0D02F3006900D200FC01F801F801F801F8E3
:0C03FB0002080000020A0000020C0000D2
:10038C00C3E50994F1E50894005060E50925E0FF08
:10039C00E50833FE741E2FF58274013EF583E49359
:1003AC00F50A740193F50B742D2509F5827400354B
:1003BC0008F583E49325E02403F582E43400F58307
:1003CC00E493F50C740193F50DE50B150BAE0A7067
:1003DC0002150A4E600BB295AF0DAE0C12040880DC
:0F03EC00E80509E509709905088095E4F5A02258
:0B040800EF1FAC0670011E4C70F622C6
:10030C0002038CE493A3F8E493A34003F68001F278
:10031C0008DFF48029E493A3F85407240CC8C333F2
:10032C00C4540F4420C8834004F456800146F6DFC1
:10033C00E4800B01020408102040809003FBE47E53
:10034C00019360BCA3FF543F30E509541FFEE493B6
:10035C00A360010ECF54C025E060A840B8E493A37D
:10036C00FAE493A3F8E493A3C8C582C8CAC583CAA8
:10037C00F0A3C8C582C8CAC583CADFE9DEE780BE60
:0104070000F4
:00000001FF
